{
  "contractName": "ItemDndNFT",
  "abi": [
    {
      "inputs": [],
      "stateMutability": "nonpayable",
      "type": "constructor"
    },
    {
      "anonymous": false,
      "inputs": [
        {
          "indexed": true,
          "internalType": "address",
          "name": "owner",
          "type": "address"
        },
        {
          "indexed": true,
          "internalType": "address",
          "name": "approved",
          "type": "address"
        },
        {
          "indexed": true,
          "internalType": "uint256",
          "name": "tokenId",
          "type": "uint256"
        }
      ],
      "name": "Approval",
      "type": "event"
    },
    {
      "anonymous": false,
      "inputs": [
        {
          "indexed": true,
          "internalType": "address",
          "name": "owner",
          "type": "address"
        },
        {
          "indexed": true,
          "internalType": "address",
          "name": "operator",
          "type": "address"
        },
        {
          "indexed": false,
          "internalType": "bool",
          "name": "approved",
          "type": "bool"
        }
      ],
      "name": "ApprovalForAll",
      "type": "event"
    },
    {
      "anonymous": false,
      "inputs": [
        {
          "indexed": false,
          "internalType": "address",
          "name": "account",
          "type": "address"
        }
      ],
      "name": "Paused",
      "type": "event"
    },
    {
      "anonymous": false,
      "inputs": [
        {
          "indexed": true,
          "internalType": "bytes32",
          "name": "role",
          "type": "bytes32"
        },
        {
          "indexed": true,
          "internalType": "bytes32",
          "name": "previousAdminRole",
          "type": "bytes32"
        },
        {
          "indexed": true,
          "internalType": "bytes32",
          "name": "newAdminRole",
          "type": "bytes32"
        }
      ],
      "name": "RoleAdminChanged",
      "type": "event"
    },
    {
      "anonymous": false,
      "inputs": [
        {
          "indexed": true,
          "internalType": "bytes32",
          "name": "role",
          "type": "bytes32"
        },
        {
          "indexed": true,
          "internalType": "address",
          "name": "account",
          "type": "address"
        },
        {
          "indexed": true,
          "internalType": "address",
          "name": "sender",
          "type": "address"
        }
      ],
      "name": "RoleGranted",
      "type": "event"
    },
    {
      "anonymous": false,
      "inputs": [
        {
          "indexed": true,
          "internalType": "bytes32",
          "name": "role",
          "type": "bytes32"
        },
        {
          "indexed": true,
          "internalType": "address",
          "name": "account",
          "type": "address"
        },
        {
          "indexed": true,
          "internalType": "address",
          "name": "sender",
          "type": "address"
        }
      ],
      "name": "RoleRevoked",
      "type": "event"
    },
    {
      "anonymous": false,
      "inputs": [
        {
          "indexed": true,
          "internalType": "address",
          "name": "from",
          "type": "address"
        },
        {
          "indexed": true,
          "internalType": "address",
          "name": "to",
          "type": "address"
        },
        {
          "indexed": true,
          "internalType": "uint256",
          "name": "tokenId",
          "type": "uint256"
        }
      ],
      "name": "Transfer",
      "type": "event"
    },
    {
      "anonymous": false,
      "inputs": [
        {
          "indexed": false,
          "internalType": "address",
          "name": "account",
          "type": "address"
        }
      ],
      "name": "Unpaused",
      "type": "event"
    },
    {
      "inputs": [],
      "name": "DEFAULT_ADMIN_ROLE",
      "outputs": [
        {
          "internalType": "bytes32",
          "name": "",
          "type": "bytes32"
        }
      ],
      "stateMutability": "view",
      "type": "function"
    },
    {
      "inputs": [],
      "name": "MINTER_ROLE",
      "outputs": [
        {
          "internalType": "bytes32",
          "name": "",
          "type": "bytes32"
        }
      ],
      "stateMutability": "view",
      "type": "function"
    },
    {
      "inputs": [],
      "name": "PAUSER_ROLE",
      "outputs": [
        {
          "internalType": "bytes32",
          "name": "",
          "type": "bytes32"
        }
      ],
      "stateMutability": "view",
      "type": "function"
    },
    {
      "inputs": [
        {
          "internalType": "address",
          "name": "to",
          "type": "address"
        },
        {
          "internalType": "uint256",
          "name": "tokenId",
          "type": "uint256"
        }
      ],
      "name": "approve",
      "outputs": [],
      "stateMutability": "nonpayable",
      "type": "function"
    },
    {
      "inputs": [
        {
          "internalType": "address",
          "name": "owner",
          "type": "address"
        }
      ],
      "name": "balanceOf",
      "outputs": [
        {
          "internalType": "uint256",
          "name": "",
          "type": "uint256"
        }
      ],
      "stateMutability": "view",
      "type": "function"
    },
    {
      "inputs": [
        {
          "internalType": "uint256",
          "name": "tokenId",
          "type": "uint256"
        }
      ],
      "name": "burn",
      "outputs": [],
      "stateMutability": "nonpayable",
      "type": "function"
    },
    {
      "inputs": [
        {
          "internalType": "uint256",
          "name": "tokenId",
          "type": "uint256"
        }
      ],
      "name": "getApproved",
      "outputs": [
        {
          "internalType": "address",
          "name": "",
          "type": "address"
        }
      ],
      "stateMutability": "view",
      "type": "function"
    },
    {
      "inputs": [
        {
          "internalType": "bytes32",
          "name": "role",
          "type": "bytes32"
        }
      ],
      "name": "getRoleAdmin",
      "outputs": [
        {
          "internalType": "bytes32",
          "name": "",
          "type": "bytes32"
        }
      ],
      "stateMutability": "view",
      "type": "function"
    },
    {
      "inputs": [
        {
          "internalType": "bytes32",
          "name": "role",
          "type": "bytes32"
        },
        {
          "internalType": "uint256",
          "name": "index",
          "type": "uint256"
        }
      ],
      "name": "getRoleMember",
      "outputs": [
        {
          "internalType": "address",
          "name": "",
          "type": "address"
        }
      ],
      "stateMutability": "view",
      "type": "function"
    },
    {
      "inputs": [
        {
          "internalType": "bytes32",
          "name": "role",
          "type": "bytes32"
        }
      ],
      "name": "getRoleMemberCount",
      "outputs": [
        {
          "internalType": "uint256",
          "name": "",
          "type": "uint256"
        }
      ],
      "stateMutability": "view",
      "type": "function"
    },
    {
      "inputs": [
        {
          "internalType": "bytes32",
          "name": "role",
          "type": "bytes32"
        },
        {
          "internalType": "address",
          "name": "account",
          "type": "address"
        }
      ],
      "name": "grantRole",
      "outputs": [],
      "stateMutability": "nonpayable",
      "type": "function"
    },
    {
      "inputs": [
        {
          "internalType": "bytes32",
          "name": "role",
          "type": "bytes32"
        },
        {
          "internalType": "address",
          "name": "account",
          "type": "address"
        }
      ],
      "name": "hasRole",
      "outputs": [
        {
          "internalType": "bool",
          "name": "",
          "type": "bool"
        }
      ],
      "stateMutability": "view",
      "type": "function"
    },
    {
      "inputs": [
        {
          "internalType": "address",
          "name": "owner",
          "type": "address"
        },
        {
          "internalType": "address",
          "name": "operator",
          "type": "address"
        }
      ],
      "name": "isApprovedForAll",
      "outputs": [
        {
          "internalType": "bool",
          "name": "",
          "type": "bool"
        }
      ],
      "stateMutability": "view",
      "type": "function"
    },
    {
      "inputs": [
        {
          "internalType": "uint256",
          "name": "",
          "type": "uint256"
        }
      ],
      "name": "itemsByTokenId",
      "outputs": [
        {
          "internalType": "uint256",
          "name": "weight",
          "type": "uint256"
        },
        {
          "internalType": "string",
          "name": "name",
          "type": "string"
        },
        {
          "internalType": "uint256",
          "name": "value",
          "type": "uint256"
        }
      ],
      "stateMutability": "view",
      "type": "function"
    },
    {
      "inputs": [],
      "name": "name",
      "outputs": [
        {
          "internalType": "string",
          "name": "",
          "type": "string"
        }
      ],
      "stateMutability": "view",
      "type": "function"
    },
    {
      "inputs": [
        {
          "internalType": "address",
          "name": "",
          "type": "address"
        },
        {
          "internalType": "uint256",
          "name": "",
          "type": "uint256"
        }
      ],
      "name": "ownedItems",
      "outputs": [
        {
          "internalType": "uint256",
          "name": "weight",
          "type": "uint256"
        },
        {
          "internalType": "string",
          "name": "name",
          "type": "string"
        },
        {
          "internalType": "uint256",
          "name": "value",
          "type": "uint256"
        }
      ],
      "stateMutability": "view",
      "type": "function"
    },
    {
      "inputs": [
        {
          "internalType": "uint256",
          "name": "tokenId",
          "type": "uint256"
        }
      ],
      "name": "ownerOf",
      "outputs": [
        {
          "internalType": "address",
          "name": "",
          "type": "address"
        }
      ],
      "stateMutability": "view",
      "type": "function"
    },
    {
      "inputs": [],
      "name": "pause",
      "outputs": [],
      "stateMutability": "nonpayable",
      "type": "function"
    },
    {
      "inputs": [],
      "name": "paused",
      "outputs": [
        {
          "internalType": "bool",
          "name": "",
          "type": "bool"
        }
      ],
      "stateMutability": "view",
      "type": "function"
    },
    {
      "inputs": [
        {
          "internalType": "bytes32",
          "name": "role",
          "type": "bytes32"
        },
        {
          "internalType": "address",
          "name": "account",
          "type": "address"
        }
      ],
      "name": "renounceRole",
      "outputs": [],
      "stateMutability": "nonpayable",
      "type": "function"
    },
    {
      "inputs": [
        {
          "internalType": "bytes32",
          "name": "role",
          "type": "bytes32"
        },
        {
          "internalType": "address",
          "name": "account",
          "type": "address"
        }
      ],
      "name": "revokeRole",
      "outputs": [],
      "stateMutability": "nonpayable",
      "type": "function"
    },
    {
      "inputs": [
        {
          "internalType": "address",
          "name": "from",
          "type": "address"
        },
        {
          "internalType": "address",
          "name": "to",
          "type": "address"
        },
        {
          "internalType": "uint256",
          "name": "tokenId",
          "type": "uint256"
        }
      ],
      "name": "safeTransferFrom",
      "outputs": [],
      "stateMutability": "nonpayable",
      "type": "function"
    },
    {
      "inputs": [
        {
          "internalType": "address",
          "name": "from",
          "type": "address"
        },
        {
          "internalType": "address",
          "name": "to",
          "type": "address"
        },
        {
          "internalType": "uint256",
          "name": "tokenId",
          "type": "uint256"
        },
        {
          "internalType": "bytes",
          "name": "_data",
          "type": "bytes"
        }
      ],
      "name": "safeTransferFrom",
      "outputs": [],
      "stateMutability": "nonpayable",
      "type": "function"
    },
    {
      "inputs": [
        {
          "internalType": "address",
          "name": "operator",
          "type": "address"
        },
        {
          "internalType": "bool",
          "name": "approved",
          "type": "bool"
        }
      ],
      "name": "setApprovalForAll",
      "outputs": [],
      "stateMutability": "nonpayable",
      "type": "function"
    },
    {
      "inputs": [
        {
          "internalType": "bytes4",
          "name": "interfaceId",
          "type": "bytes4"
        }
      ],
      "name": "supportsInterface",
      "outputs": [
        {
          "internalType": "bool",
          "name": "",
          "type": "bool"
        }
      ],
      "stateMutability": "view",
      "type": "function"
    },
    {
      "inputs": [],
      "name": "symbol",
      "outputs": [
        {
          "internalType": "string",
          "name": "",
          "type": "string"
        }
      ],
      "stateMutability": "view",
      "type": "function"
    },
    {
      "inputs": [
        {
          "internalType": "uint256",
          "name": "index",
          "type": "uint256"
        }
      ],
      "name": "tokenByIndex",
      "outputs": [
        {
          "internalType": "uint256",
          "name": "",
          "type": "uint256"
        }
      ],
      "stateMutability": "view",
      "type": "function"
    },
    {
      "inputs": [
        {
          "internalType": "address",
          "name": "owner",
          "type": "address"
        },
        {
          "internalType": "uint256",
          "name": "index",
          "type": "uint256"
        }
      ],
      "name": "tokenOfOwnerByIndex",
      "outputs": [
        {
          "internalType": "uint256",
          "name": "",
          "type": "uint256"
        }
      ],
      "stateMutability": "view",
      "type": "function"
    },
    {
      "inputs": [],
      "name": "totalSupply",
      "outputs": [
        {
          "internalType": "uint256",
          "name": "",
          "type": "uint256"
        }
      ],
      "stateMutability": "view",
      "type": "function"
    },
    {
      "inputs": [
        {
          "internalType": "address",
          "name": "from",
          "type": "address"
        },
        {
          "internalType": "address",
          "name": "to",
          "type": "address"
        },
        {
          "internalType": "uint256",
          "name": "tokenId",
          "type": "uint256"
        }
      ],
      "name": "transferFrom",
      "outputs": [],
      "stateMutability": "nonpayable",
      "type": "function"
    },
    {
      "inputs": [],
      "name": "unpause",
      "outputs": [],
      "stateMutability": "nonpayable",
      "type": "function"
    },
    {
      "inputs": [
        {
          "internalType": "address",
          "name": "to",
          "type": "address"
        },
        {
          "internalType": "string",
          "name": "itemName",
          "type": "string"
        },
        {
          "internalType": "uint256",
          "name": "itemWeight",
          "type": "uint256"
        },
        {
          "internalType": "uint256",
          "name": "itemValue",
          "type": "uint256"
        }
      ],
      "name": "mint",
      "outputs": [],
      "stateMutability": "nonpayable",
      "type": "function"
    },
    {
      "inputs": [
        {
          "internalType": "address",
          "name": "to",
          "type": "address"
        }
      ],
      "name": "mint",
      "outputs": [],
      "stateMutability": "nonpayable",
      "type": "function"
    },
    {
      "inputs": [
        {
          "internalType": "uint256",
          "name": "tokenId",
          "type": "uint256"
        }
      ],
      "name": "tokenURI",
      "outputs": [
        {
          "internalType": "string",
          "name": "",
          "type": "string"
        }
      ],
      "stateMutability": "view",
      "type": "function"
    }
  ],
  "bytecode": "0x60806040523480156200001157600080fd5b506040518060400160405280600a81526020017f4974656d446e644e4654000000000000000000000000000000000000000000008152506040518060400160405280600481526020017f49446e44000000000000000000000000000000000000000000000000000000008152506040518060400160405280600781526020017f626173655552490000000000000000000000000000000000000000000000000081525082828160029080519060200190620000ce92919062000463565b508060039080519060200190620000e792919062000463565b5050506000600c60006101000a81548160ff02191690831515021790555080600e90805190602001906200011d92919062000463565b50620001426000801b62000136620001cd60201b60201c565b620001d560201b60201c565b620001837f9f2df0fed2c77648de5860a4cc508cd0818c85b8b8a1ab4ceeef8d981c8956a662000177620001cd60201b60201c565b620001d560201b60201c565b620001c47f65d7a28e3265b37a6474929f336521b332c1681b933f6cb9f3376673440d862a620001b8620001cd60201b60201c565b620001d560201b60201c565b50505062000578565b600033905090565b620001e78282620001eb60201b60201c565b5050565b6200020282826200023360201b620014c31760201c565b6200022e81600160008581526020019081526020016000206200032460201b620015a31790919060201c565b505050565b6200024582826200035c60201b60201c565b6200032057600160008084815260200190815260200160002060000160008373ffffffffffffffffffffffffffffffffffffffff1673ffffffffffffffffffffffffffffffffffffffff16815260200190815260200160002060006101000a81548160ff021916908315150217905550620002c5620001cd60201b60201c565b73ffffffffffffffffffffffffffffffffffffffff168173ffffffffffffffffffffffffffffffffffffffff16837f2f8788117e7eff1d82e926ec794901d17c78024a50270940304540a733656f0d60405160405180910390a45b5050565b600062000354836000018373ffffffffffffffffffffffffffffffffffffffff1660001b620003c660201b60201c565b905092915050565b600080600084815260200190815260200160002060000160008373ffffffffffffffffffffffffffffffffffffffff1673ffffffffffffffffffffffffffffffffffffffff16815260200190815260200160002060009054906101000a900460ff16905092915050565b6000620003da83836200044060201b60201c565b620004355782600001829080600181540180825580915050600190039060005260206000200160009091909190915055826000018054905083600101600084815260200190815260200160002081905550600190506200043a565b600090505b92915050565b600080836001016000848152602001908152602001600020541415905092915050565b828054620004719062000542565b90600052602060002090601f016020900481019282620004955760008555620004e1565b82601f10620004b057805160ff1916838001178555620004e1565b82800160010185558215620004e1579182015b82811115620004e0578251825591602001919060010190620004c3565b5b509050620004f09190620004f4565b5090565b5b808211156200050f576000816000905550600101620004f5565b5090565b7f4e487b7100000000000000000000000000000000000000000000000000000000600052602260045260246000fd5b600060028204905060018216806200055b57607f821691505b6020821081141562000572576200057162000513565b5b50919050565b6153b180620005886000396000f3fe608060405234801561001057600080fd5b50600436106102065760003560e01c80635fb595c01161011a578063a217fddf116100ad578063ca15c8731161007c578063ca15c87314610611578063d539139314610641578063d547741f1461065f578063e63ab1e91461067b578063e985e9c51461069957610206565b8063a217fddf1461058b578063a22cb465146105a9578063b88d4fde146105c5578063c87b56dd146105e157610206565b80638456cb59116100e95780638456cb59146105035780639010d07c1461050d57806391d148541461053d57806395d89b411461056d57610206565b80635fb595c0146104555780636352211e146104875780636a627842146104b757806370a08231146104d357610206565b80632f745c591161019d578063428465341161016c578063428465341461039d57806342966c68146103cf5780634a5dc3aa146103eb5780634f6ccce7146104075780635c975abb1461043757610206565b80632f745c591461032b57806336568abe1461035b5780633f4ba83a1461037757806342842e0e1461038157610206565b806318160ddd116101d957806318160ddd146102a557806323b872dd146102c3578063248a9ca3146102df5780632f2ff15d1461030f57610206565b806301ffc9a71461020b57806306fdde031461023b578063081812fc14610259578063095ea7b314610289575b600080fd5b61022560048036038101906102209190613433565b6106c9565b604051610232919061347b565b60405180910390f35b6102436106db565b604051610250919061352f565b60405180910390f35b610273600480360381019061026e9190613587565b61076d565b60405161028091906135f5565b60405180910390f35b6102a3600480360381019061029e919061363c565b6107f2565b005b6102ad61090a565b6040516102ba919061368b565b60405180910390f35b6102dd60048036038101906102d891906136a6565b610917565b005b6102f960048036038101906102f4919061372f565b610977565b604051610306919061376b565b60405180910390f35b61032960048036038101906103249190613786565b610996565b005b6103456004803603810190610340919061363c565b6109bf565b604051610352919061368b565b60405180910390f35b61037560048036038101906103709190613786565b610a64565b005b61037f610ae7565b005b61039b600480360381019061039691906136a6565b610b61565b005b6103b760048036038101906103b2919061363c565b610b81565b6040516103c6939291906137c6565b60405180910390f35b6103e960048036038101906103e49190613587565b610c40565b005b61040560048036038101906104009190613939565b610c9c565b005b610421600480360381019061041c9190613587565b610d9a565b60405161042e919061368b565b60405180910390f35b61043f610e0b565b60405161044c919061347b565b60405180910390f35b61046f600480360381019061046a9190613587565b610e22565b60405161047e939291906137c6565b60405180910390f35b6104a1600480360381019061049c9190613587565b610ed4565b6040516104ae91906135f5565b60405180910390f35b6104d160048036038101906104cc91906139bc565b610f86565b005b6104ed60048036038101906104e891906139bc565b611016565b6040516104fa919061368b565b60405180910390f35b61050b6110ce565b005b610527600480360381019061052291906139e9565b611148565b60405161053491906135f5565b60405180910390f35b61055760048036038101906105529190613786565b611177565b604051610564919061347b565b60405180910390f35b6105756111e1565b604051610582919061352f565b60405180910390f35b610593611273565b6040516105a0919061376b565b60405180910390f35b6105c360048036038101906105be9190613a55565b61127a565b005b6105df60048036038101906105da9190613b36565b611290565b005b6105fb60048036038101906105f69190613587565b6112f2565b604051610608919061352f565b60405180910390f35b61062b6004803603810190610626919061372f565b61139a565b604051610638919061368b565b60405180910390f35b6106496113be565b604051610656919061376b565b60405180910390f35b61067960048036038101906106749190613786565b6113e2565b005b61068361140b565b604051610690919061376b565b60405180910390f35b6106b360048036038101906106ae9190613bb9565b61142f565b6040516106c0919061347b565b60405180910390f35b60006106d4826115d3565b9050919050565b6060600280546106ea90613c28565b80601f016020809104026020016040519081016040528092919081815260200182805461071690613c28565b80156107635780601f1061073857610100808354040283529160200191610763565b820191906000526020600020905b81548152906001019060200180831161074657829003601f168201915b5050505050905090565b60006107788261164d565b6107b7576040517f08c379a00000000000000000000000000000000000000000000000000000000081526004016107ae90613ccc565b60405180910390fd5b6006600083815260200190815260200160002060009054906101000a900473ffffffffffffffffffffffffffffffffffffffff169050919050565b60006107fd82610ed4565b90508073ffffffffffffffffffffffffffffffffffffffff168373ffffffffffffffffffffffffffffffffffffffff16141561086e576040517f08c379a000000000000000000000000000000000000000000000000000000000815260040161086590613d5e565b60405180910390fd5b8073ffffffffffffffffffffffffffffffffffffffff1661088d6116b9565b73ffffffffffffffffffffffffffffffffffffffff1614806108bc57506108bb816108b66116b9565b61142f565b5b6108fb576040517f08c379a00000000000000000000000000000000000000000000000000000000081526004016108f290613df0565b60405180910390fd5b61090583836116c1565b505050565b6000600a80549050905090565b6109286109226116b9565b8261177a565b610967576040517f08c379a000000000000000000000000000000000000000000000000000000000815260040161095e90613e82565b60405180910390fd5b610972838383611858565b505050565b6000806000838152602001908152602001600020600101549050919050565b61099f82610977565b6109b0816109ab6116b9565b611ab4565b6109ba8383611b51565b505050565b60006109ca83611016565b8210610a0b576040517f08c379a0000000000000000000000000000000000000000000000000000000008152600401610a0290613f14565b60405180910390fd5b600860008473ffffffffffffffffffffffffffffffffffffffff1673ffffffffffffffffffffffffffffffffffffffff168152602001908152602001600020600083815260200190815260200160002054905092915050565b610a6c6116b9565b73ffffffffffffffffffffffffffffffffffffffff168173ffffffffffffffffffffffffffffffffffffffff1614610ad9576040517f08c379a0000000000000000000000000000000000000000000000000000000008152600401610ad090613fa6565b60405180910390fd5b610ae38282611b85565b5050565b610b187f65d7a28e3265b37a6474929f336521b332c1681b933f6cb9f3376673440d862a610b136116b9565b611177565b610b57576040517f08c379a0000000000000000000000000000000000000000000000000000000008152600401610b4e90614038565b60405180910390fd5b610b5f611bb9565b565b610b7c83838360405180602001604052806000815250611290565b505050565b600f60205281600052604060002060205280600052604060002060009150915050806000015490806001018054610bb790613c28565b80601f0160208091040260200160405190810160405280929190818152602001828054610be390613c28565b8015610c305780601f10610c0557610100808354040283529160200191610c30565b820191906000526020600020905b815481529060010190602001808311610c1357829003601f168201915b5050505050908060020154905083565b610c51610c4b6116b9565b8261177a565b610c90576040517f08c379a0000000000000000000000000000000000000000000000000000000008152600401610c87906140ca565b60405180910390fd5b610c9981611c5b565b50565b610ccd7f9f2df0fed2c77648de5860a4cc508cd0818c85b8b8a1ab4ceeef8d981c8956a6610cc86116b9565b611177565b610d0c576040517f08c379a0000000000000000000000000000000000000000000000000000000008152600401610d039061415c565b60405180910390fd5b610d1f84610d1a6011611d6c565b611d7a565b60405180606001604052808381526020018481526020018281525060106000610d486011611d6c565b8152602001908152602001600020600082015181600001556020820151816001019080519060200190610d7c929190613324565b5060408201518160020155905050610d946011611f48565b50505050565b6000610da461090a565b8210610de5576040517f08c379a0000000000000000000000000000000000000000000000000000000008152600401610ddc906141ee565b60405180910390fd5b600a8281548110610df957610df861420e565b5b90600052602060002001549050919050565b6000600c60009054906101000a900460ff16905090565b6010602052806000526040600020600091509050806000015490806001018054610e4b90613c28565b80601f0160208091040260200160405190810160405280929190818152602001828054610e7790613c28565b8015610ec45780601f10610e9957610100808354040283529160200191610ec4565b820191906000526020600020905b815481529060010190602001808311610ea757829003601f168201915b5050505050908060020154905083565b6000806004600084815260200190815260200160002060009054906101000a900473ffffffffffffffffffffffffffffffffffffffff169050600073ffffffffffffffffffffffffffffffffffffffff168173ffffffffffffffffffffffffffffffffffffffff161415610f7d576040517f08c379a0000000000000000000000000000000000000000000000000000000008152600401610f74906142af565b60405180910390fd5b80915050919050565b610fb77f9f2df0fed2c77648de5860a4cc508cd0818c85b8b8a1ab4ceeef8d981c8956a6610fb26116b9565b611177565b610ff6576040517f08c379a0000000000000000000000000000000000000000000000000000000008152600401610fed9061415c565b60405180910390fd5b61100981611004600d611d6c565b611d7a565b611013600d611f48565b50565b60008073ffffffffffffffffffffffffffffffffffffffff168273ffffffffffffffffffffffffffffffffffffffff161415611087576040517f08c379a000000000000000000000000000000000000000000000000000000000815260040161107e90614341565b60405180910390fd5b600560008373ffffffffffffffffffffffffffffffffffffffff1673ffffffffffffffffffffffffffffffffffffffff168152602001908152602001600020549050919050565b6110ff7f65d7a28e3265b37a6474929f336521b332c1681b933f6cb9f3376673440d862a6110fa6116b9565b611177565b61113e576040517f08c379a0000000000000000000000000000000000000000000000000000000008152600401611135906143d3565b60405180910390fd5b611146611f5e565b565b600061116f826001600086815260200190815260200160002061200190919063ffffffff16565b905092915050565b600080600084815260200190815260200160002060000160008373ffffffffffffffffffffffffffffffffffffffff1673ffffffffffffffffffffffffffffffffffffffff16815260200190815260200160002060009054906101000a900460ff16905092915050565b6060600380546111f090613c28565b80601f016020809104026020016040519081016040528092919081815260200182805461121c90613c28565b80156112695780601f1061123e57610100808354040283529160200191611269565b820191906000526020600020905b81548152906001019060200180831161124c57829003601f168201915b5050505050905090565b6000801b81565b61128c6112856116b9565b838361201b565b5050565b6112a161129b6116b9565b8361177a565b6112e0576040517f08c379a00000000000000000000000000000000000000000000000000000000081526004016112d790613e82565b60405180910390fd5b6112ec84848484612188565b50505050565b60606112fd8261164d565b61133c576040517f08c379a000000000000000000000000000000000000000000000000000000000815260040161133390614465565b60405180910390fd5b6000611347836121e4565b905060008151116113675760405180602001604052806000815250611392565b80611371846122b8565b6040516020016113829291906144c1565b6040516020818303038152906040525b915050919050565b60006113b760016000848152602001908152602001600020612419565b9050919050565b7f9f2df0fed2c77648de5860a4cc508cd0818c85b8b8a1ab4ceeef8d981c8956a681565b6113eb82610977565b6113fc816113f76116b9565b611ab4565b6114068383611b85565b505050565b7f65d7a28e3265b37a6474929f336521b332c1681b933f6cb9f3376673440d862a81565b6000600760008473ffffffffffffffffffffffffffffffffffffffff1673ffffffffffffffffffffffffffffffffffffffff16815260200190815260200160002060008373ffffffffffffffffffffffffffffffffffffffff1673ffffffffffffffffffffffffffffffffffffffff16815260200190815260200160002060009054906101000a900460ff16905092915050565b6114cd8282611177565b61159f57600160008084815260200190815260200160002060000160008373ffffffffffffffffffffffffffffffffffffffff1673ffffffffffffffffffffffffffffffffffffffff16815260200190815260200160002060006101000a81548160ff0219169083151502179055506115446116b9565b73ffffffffffffffffffffffffffffffffffffffff168173ffffffffffffffffffffffffffffffffffffffff16837f2f8788117e7eff1d82e926ec794901d17c78024a50270940304540a733656f0d60405160405180910390a45b5050565b60006115cb836000018373ffffffffffffffffffffffffffffffffffffffff1660001b61242e565b905092915050565b60007f780e9d63000000000000000000000000000000000000000000000000000000007bffffffffffffffffffffffffffffffffffffffffffffffffffffffff1916827bffffffffffffffffffffffffffffffffffffffffffffffffffffffff1916148061164657506116458261249e565b5b9050919050565b60008073ffffffffffffffffffffffffffffffffffffffff166004600084815260200190815260200160002060009054906101000a900473ffffffffffffffffffffffffffffffffffffffff1673ffffffffffffffffffffffffffffffffffffffff1614159050919050565b600033905090565b816006600083815260200190815260200160002060006101000a81548173ffffffffffffffffffffffffffffffffffffffff021916908373ffffffffffffffffffffffffffffffffffffffff160217905550808273ffffffffffffffffffffffffffffffffffffffff1661173483610ed4565b73ffffffffffffffffffffffffffffffffffffffff167f8c5be1e5ebec7d5bd14f71427d1e84f3dd0314c0f7b2291e5b200ac8c7c3b92560405160405180910390a45050565b60006117858261164d565b6117c4576040517f08c379a00000000000000000000000000000000000000000000000000000000081526004016117bb90614557565b60405180910390fd5b60006117cf83610ed4565b90508073ffffffffffffffffffffffffffffffffffffffff168473ffffffffffffffffffffffffffffffffffffffff16148061183e57508373ffffffffffffffffffffffffffffffffffffffff166118268461076d565b73ffffffffffffffffffffffffffffffffffffffff16145b8061184f575061184e818561142f565b5b91505092915050565b8273ffffffffffffffffffffffffffffffffffffffff1661187882610ed4565b73ffffffffffffffffffffffffffffffffffffffff16146118ce576040517f08c379a00000000000000000000000000000000000000000000000000000000081526004016118c5906145e9565b60405180910390fd5b600073ffffffffffffffffffffffffffffffffffffffff168273ffffffffffffffffffffffffffffffffffffffff16141561193e576040517f08c379a00000000000000000000000000000000000000000000000000000000081526004016119359061467b565b60405180910390fd5b611949838383612580565b6119546000826116c1565b6001600560008573ffffffffffffffffffffffffffffffffffffffff1673ffffffffffffffffffffffffffffffffffffffff16815260200190815260200160002060008282546119a491906146ca565b925050819055506001600560008473ffffffffffffffffffffffffffffffffffffffff1673ffffffffffffffffffffffffffffffffffffffff16815260200190815260200160002060008282546119fb91906146fe565b92505081905550816004600083815260200190815260200160002060006101000a81548173ffffffffffffffffffffffffffffffffffffffff021916908373ffffffffffffffffffffffffffffffffffffffff160217905550808273ffffffffffffffffffffffffffffffffffffffff168473ffffffffffffffffffffffffffffffffffffffff167fddf252ad1be2c89b69c2b068fc378daa952ba7f163c4a11628f55a4df523b3ef60405160405180910390a4505050565b611abe8282611177565b611b4d57611ae38173ffffffffffffffffffffffffffffffffffffffff166014612590565b611af18360001c6020612590565b604051602001611b029291906147ec565b6040516020818303038152906040526040517f08c379a0000000000000000000000000000000000000000000000000000000008152600401611b44919061352f565b60405180910390fd5b5050565b611b5b82826114c3565b611b8081600160008581526020019081526020016000206115a390919063ffffffff16565b505050565b611b8f82826127cc565b611bb481600160008581526020019081526020016000206128ad90919063ffffffff16565b505050565b611bc1610e0b565b611c00576040517f08c379a0000000000000000000000000000000000000000000000000000000008152600401611bf790614872565b60405180910390fd5b6000600c60006101000a81548160ff0219169083151502179055507f5db9ee0a495bf2e6ff9c91a7834c1ba4fdd244a5e8aa4e537bd38aeae4b073aa611c446116b9565b604051611c5191906135f5565b60405180910390a1565b6000611c6682610ed4565b9050611c7481600084612580565b611c7f6000836116c1565b6001600560008373ffffffffffffffffffffffffffffffffffffffff1673ffffffffffffffffffffffffffffffffffffffff1681526020019081526020016000206000828254611ccf91906146ca565b925050819055506004600083815260200190815260200160002060006101000a81549073ffffffffffffffffffffffffffffffffffffffff021916905581600073ffffffffffffffffffffffffffffffffffffffff168273ffffffffffffffffffffffffffffffffffffffff167fddf252ad1be2c89b69c2b068fc378daa952ba7f163c4a11628f55a4df523b3ef60405160405180910390a45050565b600081600001549050919050565b600073ffffffffffffffffffffffffffffffffffffffff168273ffffffffffffffffffffffffffffffffffffffff161415611dea576040517f08c379a0000000000000000000000000000000000000000000000000000000008152600401611de1906148de565b60405180910390fd5b611df38161164d565b15611e33576040517f08c379a0000000000000000000000000000000000000000000000000000000008152600401611e2a9061494a565b60405180910390fd5b611e3f60008383612580565b6001600560008473ffffffffffffffffffffffffffffffffffffffff1673ffffffffffffffffffffffffffffffffffffffff1681526020019081526020016000206000828254611e8f91906146fe565b92505081905550816004600083815260200190815260200160002060006101000a81548173ffffffffffffffffffffffffffffffffffffffff021916908373ffffffffffffffffffffffffffffffffffffffff160217905550808273ffffffffffffffffffffffffffffffffffffffff16600073ffffffffffffffffffffffffffffffffffffffff167fddf252ad1be2c89b69c2b068fc378daa952ba7f163c4a11628f55a4df523b3ef60405160405180910390a45050565b6001816000016000828254019250508190555050565b611f66610e0b565b15611fa6576040517f08c379a0000000000000000000000000000000000000000000000000000000008152600401611f9d906149b6565b60405180910390fd5b6001600c60006101000a81548160ff0219169083151502179055507f62e78cea01bee320cd4e420270b5ea74000d11b0c9f74754ebdbfc544b05a258611fea6116b9565b604051611ff791906135f5565b60405180910390a1565b600061201083600001836128dd565b60001c905092915050565b8173ffffffffffffffffffffffffffffffffffffffff168373ffffffffffffffffffffffffffffffffffffffff16141561208a576040517f08c379a000000000000000000000000000000000000000000000000000000000815260040161208190614a22565b60405180910390fd5b80600760008573ffffffffffffffffffffffffffffffffffffffff1673ffffffffffffffffffffffffffffffffffffffff16815260200190815260200160002060008473ffffffffffffffffffffffffffffffffffffffff1673ffffffffffffffffffffffffffffffffffffffff16815260200190815260200160002060006101000a81548160ff0219169083151502179055508173ffffffffffffffffffffffffffffffffffffffff168373ffffffffffffffffffffffffffffffffffffffff167f17307eab39ab6107e8899845ad3d59bd9653f200f220920489ca2b5937696c318360405161217b919061347b565b60405180910390a3505050565b612193848484611858565b61219f84848484612908565b6121de576040517f08c379a00000000000000000000000000000000000000000000000000000000081526004016121d590614ab4565b60405180910390fd5b50505050565b6060600061228e6010600085815260200190815260200160002060010161222060106000878152602001908152602001600020600201546122b8565b61223f60106000888152602001908152602001600020600001546122b8565b612248876122b8565b60405160200161225b9493929190614e60565b60405160208183030381529060405260405160200161227a9190614f53565b604051602081830303815290604052612a90565b9050806040516020016122a19190614fb6565b604051602081830303815290604052915050919050565b60606000821415612300576040518060400160405280600181526020017f30000000000000000000000000000000000000000000000000000000000000008152509050612414565b600082905060005b6000821461233257808061231b90614fd8565b915050600a8261232b9190615050565b9150612308565b60008167ffffffffffffffff81111561234e5761234d61380e565b5b6040519080825280601f01601f1916602001820160405280156123805781602001600182028036833780820191505090505b5090505b6000851461240d5760018261239991906146ca565b9150600a856123a89190615081565b60306123b491906146fe565b60f81b8183815181106123ca576123c961420e565b5b60200101907effffffffffffffffffffffffffffffffffffffffffffffffffffffffffffff1916908160001a905350600a856124069190615050565b9450612384565b8093505050505b919050565b600061242782600001612bf4565b9050919050565b600061243a8383612c05565b612493578260000182908060018154018082558091505060019003906000526020600020016000909190919091505582600001805490508360010160008481526020019081526020016000208190555060019050612498565b600090505b92915050565b60007f80ac58cd000000000000000000000000000000000000000000000000000000007bffffffffffffffffffffffffffffffffffffffffffffffffffffffff1916827bffffffffffffffffffffffffffffffffffffffffffffffffffffffff1916148061256957507f5b5e139f000000000000000000000000000000000000000000000000000000007bffffffffffffffffffffffffffffffffffffffffffffffffffffffff1916827bffffffffffffffffffffffffffffffffffffffffffffffffffffffff1916145b80612579575061257882612c28565b5b9050919050565b61258b838383612ca2565b505050565b6060600060028360026125a391906150b2565b6125ad91906146fe565b67ffffffffffffffff8111156125c6576125c561380e565b5b6040519080825280601f01601f1916602001820160405280156125f85781602001600182028036833780820191505090505b5090507f3000000000000000000000000000000000000000000000000000000000000000816000815181106126305761262f61420e565b5b60200101907effffffffffffffffffffffffffffffffffffffffffffffffffffffffffffff1916908160001a9053507f7800000000000000000000000000000000000000000000000000000000000000816001815181106126945761269361420e565b5b60200101907effffffffffffffffffffffffffffffffffffffffffffffffffffffffffffff1916908160001a905350600060018460026126d491906150b2565b6126de91906146fe565b90505b600181111561277e577f3031323334353637383961626364656600000000000000000000000000000000600f8616601081106127205761271f61420e565b5b1a60f81b8282815181106127375761273661420e565b5b60200101907effffffffffffffffffffffffffffffffffffffffffffffffffffffffffffff1916908160001a905350600485901c9450806127779061510c565b90506126e1565b50600084146127c2576040517f08c379a00000000000000000000000000000000000000000000000000000000081526004016127b990615182565b60405180910390fd5b8091505092915050565b6127d68282611177565b156128a957600080600084815260200190815260200160002060000160008373ffffffffffffffffffffffffffffffffffffffff1673ffffffffffffffffffffffffffffffffffffffff16815260200190815260200160002060006101000a81548160ff02191690831515021790555061284e6116b9565b73ffffffffffffffffffffffffffffffffffffffff168173ffffffffffffffffffffffffffffffffffffffff16837ff6391f5c32d9c69d2a47ea670b442974b53935d1edc7fd64eb21e047a839171b60405160405180910390a45b5050565b60006128d5836000018373ffffffffffffffffffffffffffffffffffffffff1660001b612cfa565b905092915050565b60008260000182815481106128f5576128f461420e565b5b9060005260206000200154905092915050565b60006129298473ffffffffffffffffffffffffffffffffffffffff16612e0e565b15612a83578373ffffffffffffffffffffffffffffffffffffffff1663150b7a026129526116b9565b8786866040518563ffffffff1660e01b815260040161297494939291906151ec565b6020604051808303816000875af19250505080156129b057506040513d601f19601f820116820180604052508101906129ad919061524d565b60015b612a33573d80600081146129e0576040519150601f19603f3d011682016040523d82523d6000602084013e6129e5565b606091505b50600081511415612a2b576040517f08c379a0000000000000000000000000000000000000000000000000000000008152600401612a2290614ab4565b60405180910390fd5b805181602001fd5b63150b7a0260e01b7bffffffffffffffffffffffffffffffffffffffffffffffffffffffff1916817bffffffffffffffffffffffffffffffffffffffffffffffffffffffff191614915050612a88565b600190505b949350505050565b6060600082511415612ab357604051806020016040528060008152509050612bef565b600060405180606001604052806040815260200161533c6040913990506000600360028551612ae291906146fe565b612aec9190615050565b6004612af891906150b2565b67ffffffffffffffff811115612b1157612b1061380e565b5b6040519080825280601f01601f191660200182016040528015612b435781602001600182028036833780820191505090505b509050600182016020820185865187015b80821015612baf576003820191508151603f8160121c168501518453600184019350603f81600c1c168501518453600184019350603f8160061c168501518453600184019350603f8116850151845360018401935050612b54565b5050600386510660018114612bcb5760028114612bde57612be6565b603d6001830353603d6002830353612be6565b603d60018303535b50505080925050505b919050565b600081600001805490509050919050565b600080836001016000848152602001908152602001600020541415905092915050565b60007f5a05180f000000000000000000000000000000000000000000000000000000007bffffffffffffffffffffffffffffffffffffffffffffffffffffffff1916827bffffffffffffffffffffffffffffffffffffffffffffffffffffffff19161480612c9b5750612c9a82612e21565b5b9050919050565b612cad838383612e9b565b612cb5610e0b565b15612cf5576040517f08c379a0000000000000000000000000000000000000000000000000000000008152600401612cec906152ec565b60405180910390fd5b505050565b60008083600101600084815260200190815260200160002054905060008114612e02576000600182612d2c91906146ca565b9050600060018660000180549050612d4491906146ca565b9050818114612db3576000866000018281548110612d6557612d6461420e565b5b9060005260206000200154905080876000018481548110612d8957612d8861420e565b5b90600052602060002001819055508387600101600083815260200190815260200160002081905550505b85600001805480612dc757612dc661530c565b5b600190038181906000526020600020016000905590558560010160008681526020019081526020016000206000905560019350505050612e08565b60009150505b92915050565b600080823b905060008111915050919050565b60007f7965db0b000000000000000000000000000000000000000000000000000000007bffffffffffffffffffffffffffffffffffffffffffffffffffffffff1916827bffffffffffffffffffffffffffffffffffffffffffffffffffffffff19161480612e945750612e9382612faf565b5b9050919050565b612ea6838383613019565b600073ffffffffffffffffffffffffffffffffffffffff168373ffffffffffffffffffffffffffffffffffffffff161415612ee957612ee48161301e565b612f28565b8173ffffffffffffffffffffffffffffffffffffffff168373ffffffffffffffffffffffffffffffffffffffff1614612f2757612f268382613067565b5b5b600073ffffffffffffffffffffffffffffffffffffffff168273ffffffffffffffffffffffffffffffffffffffff161415612f6b57612f66816131d4565b612faa565b8273ffffffffffffffffffffffffffffffffffffffff168273ffffffffffffffffffffffffffffffffffffffff1614612fa957612fa882826132a5565b5b5b505050565b60007f01ffc9a7000000000000000000000000000000000000000000000000000000007bffffffffffffffffffffffffffffffffffffffffffffffffffffffff1916827bffffffffffffffffffffffffffffffffffffffffffffffffffffffff1916149050919050565b505050565b600a80549050600b600083815260200190815260200160002081905550600a81908060018154018082558091505060019003906000526020600020016000909190919091505550565b6000600161307484611016565b61307e91906146ca565b9050600060096000848152602001908152602001600020549050818114613163576000600860008673ffffffffffffffffffffffffffffffffffffffff1673ffffffffffffffffffffffffffffffffffffffff168152602001908152602001600020600084815260200190815260200160002054905080600860008773ffffffffffffffffffffffffffffffffffffffff1673ffffffffffffffffffffffffffffffffffffffff168152602001908152602001600020600084815260200190815260200160002081905550816009600083815260200190815260200160002081905550505b6009600084815260200190815260200160002060009055600860008573ffffffffffffffffffffffffffffffffffffffff1673ffffffffffffffffffffffffffffffffffffffff16815260200190815260200160002060008381526020019081526020016000206000905550505050565b60006001600a805490506131e891906146ca565b90506000600b60008481526020019081526020016000205490506000600a83815481106132185761321761420e565b5b9060005260206000200154905080600a838154811061323a5761323961420e565b5b906000526020600020018190555081600b600083815260200190815260200160002081905550600b600085815260200190815260200160002060009055600a8054806132895761328861530c565b5b6001900381819060005260206000200160009055905550505050565b60006132b083611016565b905081600860008573ffffffffffffffffffffffffffffffffffffffff1673ffffffffffffffffffffffffffffffffffffffff168152602001908152602001600020600083815260200190815260200160002081905550806009600084815260200190815260200160002081905550505050565b82805461333090613c28565b90600052602060002090601f0160209004810192826133525760008555613399565b82601f1061336b57805160ff1916838001178555613399565b82800160010185558215613399579182015b8281111561339857825182559160200191906001019061337d565b5b5090506133a691906133aa565b5090565b5b808211156133c35760008160009055506001016133ab565b5090565b6000604051905090565b600080fd5b600080fd5b60007fffffffff0000000000000000000000000000000000000000000000000000000082169050919050565b613410816133db565b811461341b57600080fd5b50565b60008135905061342d81613407565b92915050565b600060208284031215613449576134486133d1565b5b60006134578482850161341e565b91505092915050565b60008115159050919050565b61347581613460565b82525050565b6000602082019050613490600083018461346c565b92915050565b600081519050919050565b600082825260208201905092915050565b60005b838110156134d05780820151818401526020810190506134b5565b838111156134df576000848401525b50505050565b6000601f19601f8301169050919050565b600061350182613496565b61350b81856134a1565b935061351b8185602086016134b2565b613524816134e5565b840191505092915050565b6000602082019050818103600083015261354981846134f6565b905092915050565b6000819050919050565b61356481613551565b811461356f57600080fd5b50565b6000813590506135818161355b565b92915050565b60006020828403121561359d5761359c6133d1565b5b60006135ab84828501613572565b91505092915050565b600073ffffffffffffffffffffffffffffffffffffffff82169050919050565b60006135df826135b4565b9050919050565b6135ef816135d4565b82525050565b600060208201905061360a60008301846135e6565b92915050565b613619816135d4565b811461362457600080fd5b50565b60008135905061363681613610565b92915050565b60008060408385031215613653576136526133d1565b5b600061366185828601613627565b925050602061367285828601613572565b9150509250929050565b61368581613551565b82525050565b60006020820190506136a0600083018461367c565b92915050565b6000806000606084860312156136bf576136be6133d1565b5b60006136cd86828701613627565b93505060206136de86828701613627565b92505060406136ef86828701613572565b9150509250925092565b6000819050919050565b61370c816136f9565b811461371757600080fd5b50565b60008135905061372981613703565b92915050565b600060208284031215613745576137446133d1565b5b60006137538482850161371a565b91505092915050565b613765816136f9565b82525050565b6000602082019050613780600083018461375c565b92915050565b6000806040838503121561379d5761379c6133d1565b5b60006137ab8582860161371a565b92505060206137bc85828601613627565b9150509250929050565b60006060820190506137db600083018661367c565b81810360208301526137ed81856134f6565b90506137fc604083018461367c565b949350505050565b600080fd5b600080fd5b7f4e487b7100000000000000000000000000000000000000000000000000000000600052604160045260246000fd5b613846826134e5565b810181811067ffffffffffffffff821117156138655761386461380e565b5b80604052505050565b60006138786133c7565b9050613884828261383d565b919050565b600067ffffffffffffffff8211156138a4576138a361380e565b5b6138ad826134e5565b9050602081019050919050565b82818337600083830152505050565b60006138dc6138d784613889565b61386e565b9050828152602081018484840111156138f8576138f7613809565b5b6139038482856138ba565b509392505050565b600082601f8301126139205761391f613804565b5b81356139308482602086016138c9565b91505092915050565b60008060008060808587031215613953576139526133d1565b5b600061396187828801613627565b945050602085013567ffffffffffffffff811115613982576139816133d6565b5b61398e8782880161390b565b935050604061399f87828801613572565b92505060606139b087828801613572565b91505092959194509250565b6000602082840312156139d2576139d16133d1565b5b60006139e084828501613627565b91505092915050565b60008060408385031215613a00576139ff6133d1565b5b6000613a0e8582860161371a565b9250506020613a1f85828601613572565b9150509250929050565b613a3281613460565b8114613a3d57600080fd5b50565b600081359050613a4f81613a29565b92915050565b60008060408385031215613a6c57613a6b6133d1565b5b6000613a7a85828601613627565b9250506020613a8b85828601613a40565b9150509250929050565b600067ffffffffffffffff821115613ab057613aaf61380e565b5b613ab9826134e5565b9050602081019050919050565b6000613ad9613ad484613a95565b61386e565b905082815260208101848484011115613af557613af4613809565b5b613b008482856138ba565b509392505050565b600082601f830112613b1d57613b1c613804565b5b8135613b2d848260208601613ac6565b91505092915050565b60008060008060808587031215613b5057613b4f6133d1565b5b6000613b5e87828801613627565b9450506020613b6f87828801613627565b9350506040613b8087828801613572565b925050606085013567ffffffffffffffff811115613ba157613ba06133d6565b5b613bad87828801613b08565b91505092959194509250565b60008060408385031215613bd057613bcf6133d1565b5b6000613bde85828601613627565b9250506020613bef85828601613627565b9150509250929050565b7f4e487b7100000000000000000000000000000000000000000000000000000000600052602260045260246000fd5b60006002820490506001821680613c4057607f821691505b60208210811415613c5457613c53613bf9565b5b50919050565b7f4552433732313a20617070726f76656420717565727920666f72206e6f6e657860008201527f697374656e7420746f6b656e0000000000000000000000000000000000000000602082015250565b6000613cb6602c836134a1565b9150613cc182613c5a565b604082019050919050565b60006020820190508181036000830152613ce581613ca9565b9050919050565b7f4552433732313a20617070726f76616c20746f2063757272656e74206f776e6560008201527f7200000000000000000000000000000000000000000000000000000000000000602082015250565b6000613d486021836134a1565b9150613d5382613cec565b604082019050919050565b60006020820190508181036000830152613d7781613d3b565b9050919050565b7f4552433732313a20617070726f76652063616c6c6572206973206e6f74206f7760008201527f6e6572206e6f7220617070726f76656420666f7220616c6c0000000000000000602082015250565b6000613dda6038836134a1565b9150613de582613d7e565b604082019050919050565b60006020820190508181036000830152613e0981613dcd565b9050919050565b7f4552433732313a207472616e736665722063616c6c6572206973206e6f74206f60008201527f776e6572206e6f7220617070726f766564000000000000000000000000000000602082015250565b6000613e6c6031836134a1565b9150613e7782613e10565b604082019050919050565b60006020820190508181036000830152613e9b81613e5f565b9050919050565b7f455243373231456e756d657261626c653a206f776e657220696e646578206f7560008201527f74206f6620626f756e6473000000000000000000000000000000000000000000602082015250565b6000613efe602b836134a1565b9150613f0982613ea2565b604082019050919050565b60006020820190508181036000830152613f2d81613ef1565b9050919050565b7f416363657373436f6e74726f6c3a2063616e206f6e6c792072656e6f756e636560008201527f20726f6c657320666f722073656c660000000000000000000000000000000000602082015250565b6000613f90602f836134a1565b9150613f9b82613f34565b604082019050919050565b60006020820190508181036000830152613fbf81613f83565b9050919050565b7f4552433732315072657365744d696e7465725061757365724175746f49643a2060008201527f6d75737420686176652070617573657220726f6c6520746f20756e7061757365602082015250565b60006140226040836134a1565b915061402d82613fc6565b604082019050919050565b6000602082019050818103600083015261405181614015565b9050919050565b7f4552433732314275726e61626c653a2063616c6c6572206973206e6f74206f7760008201527f6e6572206e6f7220617070726f76656400000000000000000000000000000000602082015250565b60006140b46030836134a1565b91506140bf82614058565b604082019050919050565b600060208201905081810360008301526140e3816140a7565b9050919050565b7f4552433732315072657365744d696e7465725061757365724175746f49643a2060008201527f6d7573742068617665206d696e74657220726f6c6520746f206d696e74000000602082015250565b6000614146603d836134a1565b9150614151826140ea565b604082019050919050565b6000602082019050818103600083015261417581614139565b9050919050565b7f455243373231456e756d657261626c653a20676c6f62616c20696e646578206f60008201527f7574206f6620626f756e64730000000000000000000000000000000000000000602082015250565b60006141d8602c836134a1565b91506141e38261417c565b604082019050919050565b60006020820190508181036000830152614207816141cb565b9050919050565b7f4e487b7100000000000000000000000000000000000000000000000000000000600052603260045260246000fd5b7f4552433732313a206f776e657220717565727920666f72206e6f6e657869737460008201527f656e7420746f6b656e0000000000000000000000000000000000000000000000602082015250565b60006142996029836134a1565b91506142a48261423d565b604082019050919050565b600060208201905081810360008301526142c88161428c565b9050919050565b7f4552433732313a2062616c616e636520717565727920666f7220746865207a6560008201527f726f206164647265737300000000000000000000000000000000000000000000602082015250565b600061432b602a836134a1565b9150614336826142cf565b604082019050919050565b6000602082019050818103600083015261435a8161431e565b9050919050565b7f4552433732315072657365744d696e7465725061757365724175746f49643a2060008201527f6d75737420686176652070617573657220726f6c6520746f2070617573650000602082015250565b60006143bd603e836134a1565b91506143c882614361565b604082019050919050565b600060208201905081810360008301526143ec816143b0565b9050919050565b7f4552433732314d657461646174613a2055524920717565727920666f72206e6f60008201527f6e6578697374656e7420746f6b656e0000000000000000000000000000000000602082015250565b600061444f602f836134a1565b915061445a826143f3565b604082019050919050565b6000602082019050818103600083015261447e81614442565b9050919050565b600081905092915050565b600061449b82613496565b6144a58185614485565b93506144b58185602086016134b2565b80840191505092915050565b60006144cd8285614490565b91506144d98284614490565b91508190509392505050565b7f4552433732313a206f70657261746f7220717565727920666f72206e6f6e657860008201527f697374656e7420746f6b656e0000000000000000000000000000000000000000602082015250565b6000614541602c836134a1565b915061454c826144e5565b604082019050919050565b6000602082019050818103600083015261457081614534565b9050919050565b7f4552433732313a207472616e73666572206f6620746f6b656e2074686174206960008201527f73206e6f74206f776e0000000000000000000000000000000000000000000000602082015250565b60006145d36029836134a1565b91506145de82614577565b604082019050919050565b60006020820190508181036000830152614602816145c6565b9050919050565b7f4552433732313a207472616e7366657220746f20746865207a65726f2061646460008201527f7265737300000000000000000000000000000000000000000000000000000000602082015250565b60006146656024836134a1565b915061467082614609565b604082019050919050565b6000602082019050818103600083015261469481614658565b9050919050565b7f4e487b7100000000000000000000000000000000000000000000000000000000600052601160045260246000fd5b60006146d582613551565b91506146e083613551565b9250828210156146f3576146f261469b565b5b828203905092915050565b600061470982613551565b915061471483613551565b9250827fffffffffffffffffffffffffffffffffffffffffffffffffffffffffffffffff038211156147495761474861469b565b5b828201905092915050565b7f416363657373436f6e74726f6c3a206163636f756e7420000000000000000000600082015250565b600061478a601783614485565b915061479582614754565b601782019050919050565b7f206973206d697373696e6720726f6c6520000000000000000000000000000000600082015250565b60006147d6601183614485565b91506147e1826147a0565b601182019050919050565b60006147f78261477d565b91506148038285614490565b915061480e826147c9565b915061481a8284614490565b91508190509392505050565b7f5061757361626c653a206e6f7420706175736564000000000000000000000000600082015250565b600061485c6014836134a1565b915061486782614826565b602082019050919050565b6000602082019050818103600083015261488b8161484f565b9050919050565b7f4552433732313a206d696e7420746f20746865207a65726f2061646472657373600082015250565b60006148c86020836134a1565b91506148d382614892565b602082019050919050565b600060208201905081810360008301526148f7816148bb565b9050919050565b7f4552433732313a20746f6b656e20616c7265616479206d696e74656400000000600082015250565b6000614934601c836134a1565b915061493f826148fe565b602082019050919050565b6000602082019050818103600083015261496381614927565b9050919050565b7f5061757361626c653a2070617573656400000000000000000000000000000000600082015250565b60006149a06010836134a1565b91506149ab8261496a565b602082019050919050565b600060208201905081810360008301526149cf81614993565b9050919050565b7f4552433732313a20617070726f766520746f2063616c6c657200000000000000600082015250565b6000614a0c6019836134a1565b9150614a17826149d6565b602082019050919050565b60006020820190508181036000830152614a3b816149ff565b9050919050565b7f4552433732313a207472616e7366657220746f206e6f6e20455243373231526560008201527f63656976657220696d706c656d656e7465720000000000000000000000000000602082015250565b6000614a9e6032836134a1565b9150614aa982614a42565b604082019050919050565b60006020820190508181036000830152614acd81614a91565b9050919050565b7f7b226e616d65223a202200000000000000000000000000000000000000000000600082015250565b6000614b0a600a83614485565b9150614b1582614ad4565b600a82019050919050565b60008190508160005260206000209050919050565b60008154614b4281613c28565b614b4c8186614485565b94506001821660008114614b675760018114614b7857614bab565b60ff19831686528186019350614bab565b614b8185614b20565b60005b83811015614ba357815481890152600182019150602081019050614b84565b838801955050505b50505092915050565b7f222c000000000000000000000000000000000000000000000000000000000000600082015250565b6000614bea600283614485565b9150614bf582614bb4565b600282019050919050565b7f22696d6167655f64617461223a2022222c000000000000000000000000000000600082015250565b6000614c36601183614485565b9150614c4182614c00565b601182019050919050565b7f2261747472696275746573223a205b7b2274726169745f74797065223a20225660008201527f616c7565222c202276616c7565223a2000000000000000000000000000000000602082015250565b6000614ca8603083614485565b9150614cb382614c4c565b603082019050919050565b7f7d2c000000000000000000000000000000000000000000000000000000000000600082015250565b6000614cf4600283614485565b9150614cff82614cbe565b600282019050919050565b7f7b2274726169745f74797065223a2022576569676874222c202276616c75652260008201527f3a20000000000000000000000000000000000000000000000000000000000000602082015250565b6000614d66602283614485565b9150614d7182614d0a565b602282019050919050565b7f7b2274726169745f74797065223a20226964222c202276616c7565223a200000600082015250565b6000614db2601e83614485565b9150614dbd82614d7c565b601e82019050919050565b7f7d00000000000000000000000000000000000000000000000000000000000000600082015250565b6000614dfe600183614485565b9150614e0982614dc8565b600182019050919050565b7f5d7d000000000000000000000000000000000000000000000000000000000000600082015250565b6000614e4a600283614485565b9150614e5582614e14565b600282019050919050565b6000614e6b82614afd565b9150614e778287614b35565b9150614e8282614bdd565b9150614e8d82614c29565b9150614e9882614c9b565b9150614ea48286614490565b9150614eaf82614ce7565b9150614eba82614d59565b9150614ec68285614490565b9150614ed182614ce7565b9150614edc82614da5565b9150614ee88284614490565b9150614ef382614df1565b9150614efe82614e3d565b915081905095945050505050565b600081519050919050565b600081905092915050565b6000614f2d82614f0c565b614f378185614f17565b9350614f478185602086016134b2565b80840191505092915050565b6000614f5f8284614f22565b915081905092915050565b7f646174613a6170706c69636174696f6e2f6a736f6e3b6261736536342c000000600082015250565b6000614fa0601d83614485565b9150614fab82614f6a565b601d82019050919050565b6000614fc182614f93565b9150614fcd8284614490565b915081905092915050565b6000614fe382613551565b91507fffffffffffffffffffffffffffffffffffffffffffffffffffffffffffffffff8214156150165761501561469b565b5b600182019050919050565b7f4e487b7100000000000000000000000000000000000000000000000000000000600052601260045260246000fd5b600061505b82613551565b915061506683613551565b92508261507657615075615021565b5b828204905092915050565b600061508c82613551565b915061509783613551565b9250826150a7576150a6615021565b5b828206905092915050565b60006150bd82613551565b91506150c883613551565b9250817fffffffffffffffffffffffffffffffffffffffffffffffffffffffffffffffff04831182151516156151015761510061469b565b5b828202905092915050565b600061511782613551565b9150600082141561512b5761512a61469b565b5b600182039050919050565b7f537472696e67733a20686578206c656e67746820696e73756666696369656e74600082015250565b600061516c6020836134a1565b915061517782615136565b602082019050919050565b6000602082019050818103600083015261519b8161515f565b9050919050565b600082825260208201905092915050565b60006151be82614f0c565b6151c881856151a2565b93506151d88185602086016134b2565b6151e1816134e5565b840191505092915050565b600060808201905061520160008301876135e6565b61520e60208301866135e6565b61521b604083018561367c565b818103606083015261522d81846151b3565b905095945050505050565b60008151905061524781613407565b92915050565b600060208284031215615263576152626133d1565b5b600061527184828501615238565b91505092915050565b7f4552433732315061757361626c653a20746f6b656e207472616e73666572207760008201527f68696c6520706175736564000000000000000000000000000000000000000000602082015250565b60006152d6602b836134a1565b91506152e18261527a565b604082019050919050565b60006020820190508181036000830152615305816152c9565b9050919050565b7f4e487b7100000000000000000000000000000000000000000000000000000000600052603160045260246000fdfe4142434445464748494a4b4c4d4e4f505152535455565758595a6162636465666768696a6b6c6d6e6f707172737475767778797a303132333435363738392b2fa2646970667358221220e8fff655663e6f751c271664232307e7974e3339b34e5e9ca04629bda54724d464736f6c634300080b0033",
  "immutableReferences": {},
  "source": "// SPDX-License-Identifier: MIT\npragma solidity ^0.8.3;\n\nimport \"@openzeppelin/contracts/token/ERC721/ERC721.sol\";\nimport \"@openzeppelin/contracts/token/ERC721/presets/ERC721PresetMinterPauserAutoId.sol\";\nimport \"@openzeppelin/contracts/token/ERC721/extensions/IERC721Metadata.sol\";\nimport \"@openzeppelin/contracts/utils/Base64.sol\";\nimport \"@openzeppelin/contracts/utils/Strings.sol\";\n\n// TODO change shop contract.\n\n/// @title NFT representing a DnD item.\n/// @author Steve Leon\n/// @notice ERC721 NFT representing a DnD item.\n/// @dev Extends the ERC721 standard.\ncontract ItemDndNFT is ERC721PresetMinterPauserAutoId {\n\nusing Counters for Counters.Counter;\n\n        // Structure of an item.\n    struct Item {\n        uint256 weight;\n        string name;\n        uint256 value;\n    }\n\nconstructor() \nERC721PresetMinterPauserAutoId(\"ItemDndNFT\", \"IDnD\", \"baseURI\") {}\n\n    // The existing items listed by owner.\n    // FIXME I think i dont need this mapping because of the _owners mapping (tokenId => address).\n    mapping(address => mapping(uint256 => Item)) public ownedItems;\n\n    // Mapping of items structs by tokenId\n     mapping(uint256 => Item) public itemsByTokenId;\n\n    Counters.Counter private _tokenIdTracker;\n        /**\n     * @dev Creates a new token for `to`. Its token ID will be automatically\n     * assigned (and available on the emitted {IERC721-Transfer} event).\n     *\n     * See {ERC721-_mint}.\n     *\n     * Requirements:\n     *\n     * - the caller must have the `MINTER_ROLE`.\n     */\n    function mint(address to, string memory itemName, uint256 itemWeight, uint256 itemValue) public virtual {\n        require(hasRole(MINTER_ROLE, _msgSender()), \"ERC721PresetMinterPauserAutoId: must have minter role to mint\");\n\n        // We cannot just use balanceOf to create the new tokenId because tokens\n        // can be burned (destroyed), so we need a separate counter.\n        _mint(to, _tokenIdTracker.current());\n\n        // Add Item struct\n        itemsByTokenId[_tokenIdTracker.current()] = Item(itemWeight, itemName,itemValue);\n\n        _tokenIdTracker.increment();\n    }\n    \n    /**\n     * @dev See {IERC721Metadata-tokenURI}.\n     */\n    function tokenURI(uint256 tokenId) public view virtual override returns (string memory) {\n        require(_exists(tokenId), \"ERC721Metadata: URI query for nonexistent token\");\n\n        string memory baseURI = _baseURI(tokenId);\n        return bytes(baseURI).length > 0 ? string(abi.encodePacked(baseURI, Strings.toString(tokenId))) : \"\";\n    }\n\n    /**\n     * @dev Base URI for computing {tokenURI}.\n     */\n    function _baseURI(uint256 tokenId) internal view virtual returns (string memory) {\n        \n         string memory json = Base64.encode(bytes(string(abi.encodePacked(abi.encodePacked(\n                    '{\"name\": \"', itemsByTokenId[tokenId].name, '\",',\n                    '\"image_data\": \"\",',\n                    '\"attributes\": [{\"trait_type\": \"Value\", \"value\": ', Strings.toString(itemsByTokenId[tokenId].value), '},',\n                    '{\"trait_type\": \"Weight\", \"value\": ', Strings.toString(itemsByTokenId[tokenId].weight), '},',\n                    '{\"trait_type\": \"id\", \"value\": ', Strings.toString(tokenId), '}',\n                    ']}'\n                )))));\n         return string(abi.encodePacked('data:application/json;base64,', json));\n\n    \n    }\n}\n\n",
  "sourcePath": "/home/damoklesh/workspace/solidity/skylar_treasury/contracts/ItemDndNFT.sol",
  "compiler": {
    "name": "solc",
    "version": "0.8.11+commit.d7f03943.Emscripten.clang"
  },
  "schemaVersion": "3.4.3",
  "updatedAt": "2022-02-13T23:46:26.831Z",
  "devdoc": {
    "author": "Steve Leon",
    "details": "Extends the ERC721 standard.",
    "kind": "dev",
    "methods": {
      "approve(address,uint256)": {
        "details": "See {IERC721-approve}."
      },
      "balanceOf(address)": {
        "details": "See {IERC721-balanceOf}."
      },
      "burn(uint256)": {
        "details": "Burns `tokenId`. See {ERC721-_burn}. Requirements: - The caller must own `tokenId` or be an approved operator."
      },
      "getApproved(uint256)": {
        "details": "See {IERC721-getApproved}."
      },
      "getRoleAdmin(bytes32)": {
        "details": "Returns the admin role that controls `role`. See {grantRole} and {revokeRole}. To change a role's admin, use {_setRoleAdmin}."
      },
      "getRoleMember(bytes32,uint256)": {
        "details": "Returns one of the accounts that have `role`. `index` must be a value between 0 and {getRoleMemberCount}, non-inclusive. Role bearers are not sorted in any particular way, and their ordering may change at any point. WARNING: When using {getRoleMember} and {getRoleMemberCount}, make sure you perform all queries on the same block. See the following https://forum.openzeppelin.com/t/iterating-over-elements-on-enumerableset-in-openzeppelin-contracts/2296[forum post] for more information."
      },
      "getRoleMemberCount(bytes32)": {
        "details": "Returns the number of accounts that have `role`. Can be used together with {getRoleMember} to enumerate all bearers of a role."
      },
      "grantRole(bytes32,address)": {
        "details": "Grants `role` to `account`. If `account` had not been already granted `role`, emits a {RoleGranted} event. Requirements: - the caller must have ``role``'s admin role."
      },
      "hasRole(bytes32,address)": {
        "details": "Returns `true` if `account` has been granted `role`."
      },
      "isApprovedForAll(address,address)": {
        "details": "See {IERC721-isApprovedForAll}."
      },
      "mint(address)": {
        "details": "Creates a new token for `to`. Its token ID will be automatically assigned (and available on the emitted {IERC721-Transfer} event), and the token URI autogenerated based on the base URI passed at construction. See {ERC721-_mint}. Requirements: - the caller must have the `MINTER_ROLE`."
      },
      "mint(address,string,uint256,uint256)": {
        "details": "Creates a new token for `to`. Its token ID will be automatically assigned (and available on the emitted {IERC721-Transfer} event). See {ERC721-_mint}. Requirements: - the caller must have the `MINTER_ROLE`."
      },
      "name()": {
        "details": "See {IERC721Metadata-name}."
      },
      "ownerOf(uint256)": {
        "details": "See {IERC721-ownerOf}."
      },
      "pause()": {
        "details": "Pauses all token transfers. See {ERC721Pausable} and {Pausable-_pause}. Requirements: - the caller must have the `PAUSER_ROLE`."
      },
      "paused()": {
        "details": "Returns true if the contract is paused, and false otherwise."
      },
      "renounceRole(bytes32,address)": {
        "details": "Revokes `role` from the calling account. Roles are often managed via {grantRole} and {revokeRole}: this function's purpose is to provide a mechanism for accounts to lose their privileges if they are compromised (such as when a trusted device is misplaced). If the calling account had been revoked `role`, emits a {RoleRevoked} event. Requirements: - the caller must be `account`."
      },
      "revokeRole(bytes32,address)": {
        "details": "Revokes `role` from `account`. If `account` had been granted `role`, emits a {RoleRevoked} event. Requirements: - the caller must have ``role``'s admin role."
      },
      "safeTransferFrom(address,address,uint256)": {
        "details": "See {IERC721-safeTransferFrom}."
      },
      "safeTransferFrom(address,address,uint256,bytes)": {
        "details": "See {IERC721-safeTransferFrom}."
      },
      "setApprovalForAll(address,bool)": {
        "details": "See {IERC721-setApprovalForAll}."
      },
      "supportsInterface(bytes4)": {
        "details": "See {IERC165-supportsInterface}."
      },
      "symbol()": {
        "details": "See {IERC721Metadata-symbol}."
      },
      "tokenByIndex(uint256)": {
        "details": "See {IERC721Enumerable-tokenByIndex}."
      },
      "tokenOfOwnerByIndex(address,uint256)": {
        "details": "See {IERC721Enumerable-tokenOfOwnerByIndex}."
      },
      "tokenURI(uint256)": {
        "details": "See {IERC721Metadata-tokenURI}."
      },
      "totalSupply()": {
        "details": "See {IERC721Enumerable-totalSupply}."
      },
      "transferFrom(address,address,uint256)": {
        "details": "See {IERC721-transferFrom}."
      },
      "unpause()": {
        "details": "Unpauses all token transfers. See {ERC721Pausable} and {Pausable-_unpause}. Requirements: - the caller must have the `PAUSER_ROLE`."
      }
    },
    "title": "NFT representing a DnD item.",
    "version": 1
  },
  "userdoc": {
    "kind": "user",
    "methods": {},
    "notice": "ERC721 NFT representing a DnD item.",
    "version": 1
  }
}