{
  "contractName": "Shop",
  "abi": [
    {
      "inputs": [
        {
          "internalType": "address",
          "name": "poTokenContract",
          "type": "address"
        }
      ],
      "stateMutability": "nonpayable",
      "type": "constructor"
    },
    {
      "anonymous": false,
      "inputs": [
        {
          "indexed": true,
          "internalType": "address",
          "name": "previousOwner",
          "type": "address"
        },
        {
          "indexed": true,
          "internalType": "address",
          "name": "newOwner",
          "type": "address"
        }
      ],
      "name": "OwnershipTransferred",
      "type": "event"
    },
    {
      "anonymous": false,
      "inputs": [
        {
          "indexed": true,
          "internalType": "address",
          "name": "from",
          "type": "address"
        },
        {
          "indexed": false,
          "internalType": "uint256",
          "name": "itemId",
          "type": "uint256"
        },
        {
          "indexed": false,
          "internalType": "uint256",
          "name": "itemValue",
          "type": "uint256"
        }
      ],
      "name": "itemAddedEvent",
      "type": "event"
    },
    {
      "anonymous": false,
      "inputs": [
        {
          "indexed": true,
          "internalType": "address",
          "name": "buyer",
          "type": "address"
        },
        {
          "indexed": false,
          "internalType": "uint256",
          "name": "itemId",
          "type": "uint256"
        },
        {
          "indexed": false,
          "internalType": "uint256",
          "name": "itemValue",
          "type": "uint256"
        }
      ],
      "name": "itemBoughtEvent",
      "type": "event"
    },
    {
      "anonymous": false,
      "inputs": [
        {
          "indexed": true,
          "internalType": "address",
          "name": "tokenAddress",
          "type": "address"
        }
      ],
      "name": "testEvent",
      "type": "event"
    },
    {
      "inputs": [
        {
          "internalType": "address",
          "name": "",
          "type": "address"
        },
        {
          "internalType": "uint256",
          "name": "",
          "type": "uint256"
        }
      ],
      "name": "ownedItems",
      "outputs": [
        {
          "internalType": "uint256",
          "name": "id",
          "type": "uint256"
        },
        {
          "internalType": "uint256",
          "name": "weight",
          "type": "uint256"
        },
        {
          "internalType": "string",
          "name": "name",
          "type": "string"
        },
        {
          "internalType": "uint256",
          "name": "value",
          "type": "uint256"
        }
      ],
      "stateMutability": "view",
      "type": "function"
    },
    {
      "inputs": [],
      "name": "owner",
      "outputs": [
        {
          "internalType": "address",
          "name": "",
          "type": "address"
        }
      ],
      "stateMutability": "view",
      "type": "function"
    },
    {
      "inputs": [],
      "name": "renounceOwnership",
      "outputs": [],
      "stateMutability": "nonpayable",
      "type": "function"
    },
    {
      "inputs": [
        {
          "internalType": "address",
          "name": "newOwner",
          "type": "address"
        }
      ],
      "name": "transferOwnership",
      "outputs": [],
      "stateMutability": "nonpayable",
      "type": "function"
    },
    {
      "inputs": [
        {
          "internalType": "uint256",
          "name": "itemId",
          "type": "uint256"
        },
        {
          "internalType": "uint256",
          "name": "amountPaid",
          "type": "uint256"
        }
      ],
      "name": "buyItem",
      "outputs": [
        {
          "internalType": "bool",
          "name": "",
          "type": "bool"
        }
      ],
      "stateMutability": "nonpayable",
      "type": "function"
    },
    {
      "inputs": [
        {
          "internalType": "string",
          "name": "name",
          "type": "string"
        },
        {
          "internalType": "uint256",
          "name": "weight",
          "type": "uint256"
        },
        {
          "internalType": "uint256",
          "name": "itemValue",
          "type": "uint256"
        }
      ],
      "name": "addItem",
      "outputs": [],
      "stateMutability": "nonpayable",
      "type": "function"
    }
  ],
  "bytecode": "0x60806040523480156200001157600080fd5b506040516200164d3803806200164d8339818101604052810190620000379190620001dd565b620000576200004b620000a760201b60201c565b620000af60201b60201c565b600160028190555080600360006101000a81548173ffffffffffffffffffffffffffffffffffffffff021916908373ffffffffffffffffffffffffffffffffffffffff160217905550506200020f565b600033905090565b60008060009054906101000a900473ffffffffffffffffffffffffffffffffffffffff169050816000806101000a81548173ffffffffffffffffffffffffffffffffffffffff021916908373ffffffffffffffffffffffffffffffffffffffff1602179055508173ffffffffffffffffffffffffffffffffffffffff168173ffffffffffffffffffffffffffffffffffffffff167f8be0079c531659141344cd1fd0a4f28419497f9722a3daafe3b4186f6b6457e060405160405180910390a35050565b600080fd5b600073ffffffffffffffffffffffffffffffffffffffff82169050919050565b6000620001a58262000178565b9050919050565b620001b78162000198565b8114620001c357600080fd5b50565b600081519050620001d781620001ac565b92915050565b600060208284031215620001f657620001f562000173565b5b60006200020684828501620001c6565b91505092915050565b61142e806200021f6000396000f3fe608060405234801561001057600080fd5b50600436106100625760003560e01c80634284653414610067578063715018a61461009a5780638da5cb5b146100a45780639979c009146100c2578063d5e6c333146100f2578063f2fde38b1461010e575b600080fd5b610081600480360381019061007c9190610d07565b61012a565b6040516100919493929190610def565b60405180910390f35b6100a26101ef565b005b6100ac610277565b6040516100b99190610e4a565b60405180910390f35b6100dc60048036038101906100d79190610e65565b6102a0565b6040516100e99190610ec0565b60405180910390f35b61010c60048036038101906101079190610f40565b610752565b005b61012860048036038101906101239190610fb4565b610935565b005b60016020528160005260406000206020528060005260406000206000915091505080600001549080600101549080600201805461016690611010565b80601f016020809104026020016040519081016040528092919081815260200182805461019290611010565b80156101df5780601f106101b4576101008083540402835291602001916101df565b820191906000526020600020905b8154815290600101906020018083116101c257829003601f168201915b5050505050908060030154905084565b6101f7610a2d565b73ffffffffffffffffffffffffffffffffffffffff16610215610277565b73ffffffffffffffffffffffffffffffffffffffff161461026b576040517f08c379a00000000000000000000000000000000000000000000000000000000081526004016102629061108e565b60405180910390fd5b6102756000610a35565b565b60008060009054906101000a900473ffffffffffffffffffffffffffffffffffffffff16905090565b600082600160008073ffffffffffffffffffffffffffffffffffffffff1673ffffffffffffffffffffffffffffffffffffffff16815260200190815260200160002060008581526020019081526020016000206000015414610337576040517f08c379a000000000000000000000000000000000000000000000000000000000815260040161032e90611120565b60405180910390fd5b600160008073ffffffffffffffffffffffffffffffffffffffff1673ffffffffffffffffffffffffffffffffffffffff16815260200190815260200160002060008481526020019081526020016000206003015482146103cc576040517f08c379a00000000000000000000000000000000000000000000000000000000081526004016103c3906111b2565b60405180910390fd5b600360009054906101000a900473ffffffffffffffffffffffffffffffffffffffff1673ffffffffffffffffffffffffffffffffffffffff167f2f5b0995274d6e666f9673d35e391cc76e98498ebd9200c9d53ec6251a25513760405160405180910390a26000600360009054906101000a900473ffffffffffffffffffffffffffffffffffffffff1673ffffffffffffffffffffffffffffffffffffffff16610474610277565b846040516024016104869291906111d2565b6040516020818303038152906040527f2ab3a743000000000000000000000000000000000000000000000000000000007bffffffffffffffffffffffffffffffffffffffffffffffffffffffff19166020820180517bffffffffffffffffffffffffffffffffffffffffffffffffffffffff83818316178352505050506040516105109190611242565b600060405180830381855af49150503d806000811461054b576040519150601f19603f3d011682016040523d82523d6000602084013e610550565b606091505b50509050600115158115151461059b576040517f08c379a0000000000000000000000000000000000000000000000000000000008152600401610592906112a5565b60405180910390fd5b600160008073ffffffffffffffffffffffffffffffffffffffff1673ffffffffffffffffffffffffffffffffffffffff1681526020019081526020016000206000858152602001908152602001600020600160003373ffffffffffffffffffffffffffffffffffffffff1673ffffffffffffffffffffffffffffffffffffffff16815260200190815260200160002060008681526020019081526020016000206000820154816000015560018201548160010155600282018160020190805461066390611010565b61066e929190610af9565b5060038201548160030155905050600160008073ffffffffffffffffffffffffffffffffffffffff1673ffffffffffffffffffffffffffffffffffffffff168152602001908152602001600020600085815260200190815260200160002060008082016000905560018201600090556002820160006106ed9190610b86565b600382016000905550503373ffffffffffffffffffffffffffffffffffffffff167f42bd7fff052b0131f384bedc5db31c77835e12c3bf0540cb8debe7ddb35bcc38858560405161073f9291906112c5565b60405180910390a2600191505092915050565b61075a610a2d565b73ffffffffffffffffffffffffffffffffffffffff16610778610277565b73ffffffffffffffffffffffffffffffffffffffff16146107ce576040517f08c379a00000000000000000000000000000000000000000000000000000000081526004016107c59061108e565b60405180910390fd5b6040518060800160405280600254815260200183815260200185858080601f016020809104026020016040519081016040528093929190818152602001838380828437600081840152601f19601f82011690508083019250505050505050815260200182815250600160008073ffffffffffffffffffffffffffffffffffffffff1673ffffffffffffffffffffffffffffffffffffffff16815260200190815260200160002060006002548152602001908152602001600020600082015181600001556020820151816001015560408201518160020190805190602001906108b7929190610bc6565b50606082015181600301559050503373ffffffffffffffffffffffffffffffffffffffff167f30ba0973c8764fa291413faa63c69743d37b52211aeceb5d5d6aeb1ad61bc2386002548360405161090f9291906112c5565b60405180910390a26002600081548092919061092a9061131d565b919050555050505050565b61093d610a2d565b73ffffffffffffffffffffffffffffffffffffffff1661095b610277565b73ffffffffffffffffffffffffffffffffffffffff16146109b1576040517f08c379a00000000000000000000000000000000000000000000000000000000081526004016109a89061108e565b60405180910390fd5b600073ffffffffffffffffffffffffffffffffffffffff168173ffffffffffffffffffffffffffffffffffffffff161415610a21576040517f08c379a0000000000000000000000000000000000000000000000000000000008152600401610a18906113d8565b60405180910390fd5b610a2a81610a35565b50565b600033905090565b60008060009054906101000a900473ffffffffffffffffffffffffffffffffffffffff169050816000806101000a81548173ffffffffffffffffffffffffffffffffffffffff021916908373ffffffffffffffffffffffffffffffffffffffff1602179055508173ffffffffffffffffffffffffffffffffffffffff168173ffffffffffffffffffffffffffffffffffffffff167f8be0079c531659141344cd1fd0a4f28419497f9722a3daafe3b4186f6b6457e060405160405180910390a35050565b828054610b0590611010565b90600052602060002090601f016020900481019282610b275760008555610b75565b82601f10610b385780548555610b75565b82800160010185558215610b7557600052602060002091601f016020900482015b82811115610b74578254825591600101919060010190610b59565b5b509050610b829190610c4c565b5090565b508054610b9290611010565b6000825580601f10610ba45750610bc3565b601f016020900490600052602060002090810190610bc29190610c4c565b5b50565b828054610bd290611010565b90600052602060002090601f016020900481019282610bf45760008555610c3b565b82601f10610c0d57805160ff1916838001178555610c3b565b82800160010185558215610c3b579182015b82811115610c3a578251825591602001919060010190610c1f565b5b509050610c489190610c4c565b5090565b5b80821115610c65576000816000905550600101610c4d565b5090565b600080fd5b600080fd5b600073ffffffffffffffffffffffffffffffffffffffff82169050919050565b6000610c9e82610c73565b9050919050565b610cae81610c93565b8114610cb957600080fd5b50565b600081359050610ccb81610ca5565b92915050565b6000819050919050565b610ce481610cd1565b8114610cef57600080fd5b50565b600081359050610d0181610cdb565b92915050565b60008060408385031215610d1e57610d1d610c69565b5b6000610d2c85828601610cbc565b9250506020610d3d85828601610cf2565b9150509250929050565b610d5081610cd1565b82525050565b600081519050919050565b600082825260208201905092915050565b60005b83811015610d90578082015181840152602081019050610d75565b83811115610d9f576000848401525b50505050565b6000601f19601f8301169050919050565b6000610dc182610d56565b610dcb8185610d61565b9350610ddb818560208601610d72565b610de481610da5565b840191505092915050565b6000608082019050610e046000830187610d47565b610e116020830186610d47565b8181036040830152610e238185610db6565b9050610e326060830184610d47565b95945050505050565b610e4481610c93565b82525050565b6000602082019050610e5f6000830184610e3b565b92915050565b60008060408385031215610e7c57610e7b610c69565b5b6000610e8a85828601610cf2565b9250506020610e9b85828601610cf2565b9150509250929050565b60008115159050919050565b610eba81610ea5565b82525050565b6000602082019050610ed56000830184610eb1565b92915050565b600080fd5b600080fd5b600080fd5b60008083601f840112610f0057610eff610edb565b5b8235905067ffffffffffffffff811115610f1d57610f1c610ee0565b5b602083019150836001820283011115610f3957610f38610ee5565b5b9250929050565b60008060008060608587031215610f5a57610f59610c69565b5b600085013567ffffffffffffffff811115610f7857610f77610c6e565b5b610f8487828801610eea565b94509450506020610f9787828801610cf2565b9250506040610fa887828801610cf2565b91505092959194509250565b600060208284031215610fca57610fc9610c69565b5b6000610fd884828501610cbc565b91505092915050565b7f4e487b7100000000000000000000000000000000000000000000000000000000600052602260045260246000fd5b6000600282049050600182168061102857607f821691505b6020821081141561103c5761103b610fe1565b5b50919050565b7f4f776e61626c653a2063616c6c6572206973206e6f7420746865206f776e6572600082015250565b6000611078602083610d61565b915061108382611042565b602082019050919050565b600060208201905081810360008301526110a78161106b565b9050919050565b7f5468652073656c6563746564206974656d206973206e6f7420617661696c616260008201527f6c652e0000000000000000000000000000000000000000000000000000000000602082015250565b600061110a602383610d61565b9150611115826110ae565b604082019050919050565b60006020820190508181036000830152611139816110fd565b9050919050565b7f5468652073656e7420616d6f756e742068617320746f20626520657175616c2060008201527f746f20746865206974656d2076616c7565000000000000000000000000000000602082015250565b600061119c603183610d61565b91506111a782611140565b604082019050919050565b600060208201905081810360008301526111cb8161118f565b9050919050565b60006040820190506111e76000830185610e3b565b6111f46020830184610d47565b9392505050565b600081519050919050565b600081905092915050565b600061121c826111fb565b6112268185611206565b9350611236818560208601610d72565b80840191505092915050565b600061124e8284611211565b915081905092915050565b7f546865205061796d656e74206661696c65640000000000000000000000000000600082015250565b600061128f601283610d61565b915061129a82611259565b602082019050919050565b600060208201905081810360008301526112be81611282565b9050919050565b60006040820190506112da6000830185610d47565b6112e76020830184610d47565b9392505050565b7f4e487b7100000000000000000000000000000000000000000000000000000000600052601160045260246000fd5b600061132882610cd1565b91507fffffffffffffffffffffffffffffffffffffffffffffffffffffffffffffffff82141561135b5761135a6112ee565b5b600182019050919050565b7f4f776e61626c653a206e6577206f776e657220697320746865207a65726f206160008201527f6464726573730000000000000000000000000000000000000000000000000000602082015250565b60006113c2602683610d61565b91506113cd82611366565b604082019050919050565b600060208201905081810360008301526113f1816113b5565b905091905056fea264697066735822122061d5c7cfa082f55ab213e951218dfe7b0e718113daaa29676a27e55c1e92083d64736f6c634300080b0033",
  "immutableReferences": {},
  "source": "// SPDX-License-Identifier: MIT\npragma solidity ^0.8.3;\n\nimport \"./Interfaces/IShop.sol\";\nimport \"./PoToken.sol\";\nimport \"@openzeppelin/contracts/access/Ownable.sol\";\n/**\n * @dev Interface representing a virtual Shop.\n */\ncontract Shop is IShop, Ownable {\n\n   \n    // Structure of an item. This should be changed lately with a ERC721 or similar NFT.\n    struct Item {\n        uint256 id;\n        uint256 weight;\n        string name;\n        uint256 value;\n    }\n\n    // Owned items by owner.\n    // Items on address(0) can be bought by customers.\n    mapping(address => mapping(uint256 => Item)) public ownedItems;\n\n    // @devs Total number of items;\n    uint256 private _itemsCount;\n\n    address private _poTokenContractAddress;\n\n    event testEvent(address indexed tokenAddress);\n\n\n    constructor (address poTokenContract) {\n        _itemsCount = 1;\n\n        _poTokenContractAddress = poTokenContract;\n    }\n\n     function buyItem(uint256 itemId, uint256 amountPaid) external override returns (bool) {\n\n        // check that the item is available (on address(0))\n        require(ownedItems[address(0)][itemId].id == itemId, \"The selected item is not available.\");\n\n        // Check if the amountPaid is enough to buy the item.\n        require(amountPaid == ownedItems[address(0)][itemId].value,\"The sent amount has to be equal to the item value\");\n\n        // Substract sent value from user PO total\n        emit testEvent(_poTokenContractAddress);\n        (bool transferSucceded, )  = _poTokenContractAddress.delegatecall(abi.encodeWithSignature(\"transfer(address recipient, uint256 amount)\", owner(),amountPaid));\n\n        require(transferSucceded == true, \"The Payment failed\");\n        // Buy the item, updating the mapping\n        ownedItems[msg.sender][itemId] = ownedItems[address(0)][itemId];\n\n        // delete the item held by the shop.\n        delete(ownedItems[address(0)][itemId]);\n\n        // Emit Event and return\n        emit itemBoughtEvent(msg.sender, itemId, amountPaid);\n\n        return true;\n     }\n\n    function addItem(string calldata name, uint256 weight, uint256 itemValue) external override onlyOwner {\n        \n        // check if the item already exist. DONT IMPLEMENT, expensive, maybe different with NFTs.\n        \n        // Add The item\n        ownedItems[address(0)][_itemsCount] = Item(_itemsCount,weight, name,itemValue);\n  \n        // emit event\n        emit itemAddedEvent(msg.sender, _itemsCount, itemValue);\n\n        _itemsCount++;\n    }\n\n}",
  "sourcePath": "/home/damoklesh/workspace/solidity/skylar_treasury/contracts/Shop.sol",
  "compiler": {
    "name": "solc",
    "version": "0.8.11+commit.d7f03943.Emscripten.clang"
  },
  "schemaVersion": "3.4.3",
  "updatedAt": "2021-12-27T19:00:40.496Z",
  "devdoc": {
    "details": "Interface representing a virtual Shop.",
    "kind": "dev",
    "methods": {
      "addItem(string,uint256,uint256)": {
        "details": "Adds and item to the shop catalog.",
        "params": {
          "itemValue": "The value of the item in P.O."
        }
      },
      "buyItem(uint256,uint256)": {
        "details": "Explain to a developer any extra details",
        "params": {
          "amountPaid": "The amount paid for the item in P.O."
        },
        "returns": {
          "_0": "True if the buy was successful, false otherwise."
        }
      },
      "owner()": {
        "details": "Returns the address of the current owner."
      },
      "renounceOwnership()": {
        "details": "Leaves the contract without owner. It will not be possible to call `onlyOwner` functions anymore. Can only be called by the current owner. NOTE: Renouncing ownership will leave the contract without an owner, thereby removing any functionality that is only available to the owner."
      },
      "transferOwnership(address)": {
        "details": "Transfers ownership of the contract to a new account (`newOwner`). Can only be called by the current owner."
      }
    },
    "version": 1
  },
  "userdoc": {
    "kind": "user",
    "methods": {
      "buyItem(uint256,uint256)": {
        "notice": "Buy the given item designed by the id parameter."
      }
    },
    "version": 1
  }
}