{
  "contractName": "Shop",
  "abi": [
    {
      "inputs": [
        {
          "internalType": "address",
          "name": "poTokenContract",
          "type": "address"
        }
      ],
      "stateMutability": "nonpayable",
      "type": "constructor"
    },
    {
      "anonymous": false,
      "inputs": [
        {
          "indexed": true,
          "internalType": "address",
          "name": "previousOwner",
          "type": "address"
        },
        {
          "indexed": true,
          "internalType": "address",
          "name": "newOwner",
          "type": "address"
        }
      ],
      "name": "OwnershipTransferred",
      "type": "event"
    },
    {
      "anonymous": false,
      "inputs": [
        {
          "indexed": true,
          "internalType": "address",
          "name": "from",
          "type": "address"
        },
        {
          "indexed": false,
          "internalType": "uint256",
          "name": "itemId",
          "type": "uint256"
        },
        {
          "indexed": false,
          "internalType": "uint256",
          "name": "itemValue",
          "type": "uint256"
        }
      ],
      "name": "itemAddedEvent",
      "type": "event"
    },
    {
      "anonymous": false,
      "inputs": [
        {
          "indexed": true,
          "internalType": "address",
          "name": "buyer",
          "type": "address"
        },
        {
          "indexed": false,
          "internalType": "uint256",
          "name": "itemId",
          "type": "uint256"
        },
        {
          "indexed": false,
          "internalType": "uint256",
          "name": "itemValue",
          "type": "uint256"
        }
      ],
      "name": "itemBoughtEvent",
      "type": "event"
    },
    {
      "inputs": [
        {
          "internalType": "address",
          "name": "",
          "type": "address"
        },
        {
          "internalType": "uint256",
          "name": "",
          "type": "uint256"
        }
      ],
      "name": "ownedItems",
      "outputs": [
        {
          "internalType": "uint256",
          "name": "id",
          "type": "uint256"
        },
        {
          "internalType": "uint256",
          "name": "weight",
          "type": "uint256"
        },
        {
          "internalType": "string",
          "name": "name",
          "type": "string"
        },
        {
          "internalType": "uint256",
          "name": "value",
          "type": "uint256"
        }
      ],
      "stateMutability": "view",
      "type": "function"
    },
    {
      "inputs": [],
      "name": "owner",
      "outputs": [
        {
          "internalType": "address",
          "name": "",
          "type": "address"
        }
      ],
      "stateMutability": "view",
      "type": "function"
    },
    {
      "inputs": [],
      "name": "renounceOwnership",
      "outputs": [],
      "stateMutability": "nonpayable",
      "type": "function"
    },
    {
      "inputs": [
        {
          "internalType": "address",
          "name": "newOwner",
          "type": "address"
        }
      ],
      "name": "transferOwnership",
      "outputs": [],
      "stateMutability": "nonpayable",
      "type": "function"
    },
    {
      "inputs": [
        {
          "internalType": "uint256",
          "name": "itemId",
          "type": "uint256"
        },
        {
          "internalType": "uint256",
          "name": "amountPaid",
          "type": "uint256"
        }
      ],
      "name": "buyItem",
      "outputs": [
        {
          "internalType": "bool",
          "name": "",
          "type": "bool"
        }
      ],
      "stateMutability": "nonpayable",
      "type": "function"
    },
    {
      "inputs": [
        {
          "internalType": "string",
          "name": "name",
          "type": "string"
        },
        {
          "internalType": "uint256",
          "name": "weight",
          "type": "uint256"
        },
        {
          "internalType": "uint256",
          "name": "itemValue",
          "type": "uint256"
        }
      ],
      "name": "addItem",
      "outputs": [],
      "stateMutability": "nonpayable",
      "type": "function"
    }
  ],
  "bytecode": "0x60806040523480156200001157600080fd5b50604051620015d7380380620015d7833981810160405281019062000037919062000240565b620000576200004b6200010a60201b60201c565b6200011260201b60201c565b600160028190555080600360006101000a81548173ffffffffffffffffffffffffffffffffffffffff021916908373ffffffffffffffffffffffffffffffffffffffff160217905550600360009054906101000a900473ffffffffffffffffffffffffffffffffffffffff16600460006101000a81548173ffffffffffffffffffffffffffffffffffffffff021916908373ffffffffffffffffffffffffffffffffffffffff1602179055505062000272565b600033905090565b60008060009054906101000a900473ffffffffffffffffffffffffffffffffffffffff169050816000806101000a81548173ffffffffffffffffffffffffffffffffffffffff021916908373ffffffffffffffffffffffffffffffffffffffff1602179055508173ffffffffffffffffffffffffffffffffffffffff168173ffffffffffffffffffffffffffffffffffffffff167f8be0079c531659141344cd1fd0a4f28419497f9722a3daafe3b4186f6b6457e060405160405180910390a35050565b600080fd5b600073ffffffffffffffffffffffffffffffffffffffff82169050919050565b60006200020882620001db565b9050919050565b6200021a81620001fb565b81146200022657600080fd5b50565b6000815190506200023a816200020f565b92915050565b600060208284031215620002595762000258620001d6565b5b6000620002698482850162000229565b91505092915050565b61135580620002826000396000f3fe608060405234801561001057600080fd5b50600436106100625760003560e01c80634284653414610067578063715018a61461009a5780638da5cb5b146100a45780639979c009146100c2578063d5e6c333146100f2578063f2fde38b1461010e575b600080fd5b610081600480360381019061007c9190610c25565b61012a565b6040516100919493929190610d0d565b60405180910390f35b6100a26101ef565b005b6100ac610277565b6040516100b99190610d68565b60405180910390f35b6100dc60048036038101906100d79190610d83565b6102a0565b6040516100e99190610dde565b60405180910390f35b61010c60048036038101906101079190610e5e565b610670565b005b61012860048036038101906101239190610ed2565b610853565b005b60016020528160005260406000206020528060005260406000206000915091505080600001549080600101549080600201805461016690610f2e565b80601f016020809104026020016040519081016040528092919081815260200182805461019290610f2e565b80156101df5780601f106101b4576101008083540402835291602001916101df565b820191906000526020600020905b8154815290600101906020018083116101c257829003601f168201915b5050505050908060030154905084565b6101f761094b565b73ffffffffffffffffffffffffffffffffffffffff16610215610277565b73ffffffffffffffffffffffffffffffffffffffff161461026b576040517f08c379a000000000000000000000000000000000000000000000000000000000815260040161026290610fac565b60405180910390fd5b6102756000610953565b565b60008060009054906101000a900473ffffffffffffffffffffffffffffffffffffffff16905090565b600082600160008073ffffffffffffffffffffffffffffffffffffffff1673ffffffffffffffffffffffffffffffffffffffff16815260200190815260200160002060008581526020019081526020016000206000015414610337576040517f08c379a000000000000000000000000000000000000000000000000000000000815260040161032e9061103e565b60405180910390fd5b600160008073ffffffffffffffffffffffffffffffffffffffff1673ffffffffffffffffffffffffffffffffffffffff16815260200190815260200160002060008481526020019081526020016000206003015482146103cc576040517f08c379a00000000000000000000000000000000000000000000000000000000081526004016103c3906110d0565b60405180910390fd5b6000600460009054906101000a900473ffffffffffffffffffffffffffffffffffffffff1673ffffffffffffffffffffffffffffffffffffffff166323b872dd3330866040518463ffffffff1660e01b815260040161042d939291906110f0565b6020604051808303816000875af115801561044c573d6000803e3d6000fd5b505050506040513d601f19601f820116820180604052508101906104709190611153565b905060011515811515146104b9576040517f08c379a00000000000000000000000000000000000000000000000000000000081526004016104b0906111cc565b60405180910390fd5b600160008073ffffffffffffffffffffffffffffffffffffffff1673ffffffffffffffffffffffffffffffffffffffff1681526020019081526020016000206000858152602001908152602001600020600160003373ffffffffffffffffffffffffffffffffffffffff1673ffffffffffffffffffffffffffffffffffffffff16815260200190815260200160002060008681526020019081526020016000206000820154816000015560018201548160010155600282018160020190805461058190610f2e565b61058c929190610a17565b5060038201548160030155905050600160008073ffffffffffffffffffffffffffffffffffffffff1673ffffffffffffffffffffffffffffffffffffffff1681526020019081526020016000206000858152602001908152602001600020600080820160009055600182016000905560028201600061060b9190610aa4565b600382016000905550503373ffffffffffffffffffffffffffffffffffffffff167f42bd7fff052b0131f384bedc5db31c77835e12c3bf0540cb8debe7ddb35bcc38858560405161065d9291906111ec565b60405180910390a2600191505092915050565b61067861094b565b73ffffffffffffffffffffffffffffffffffffffff16610696610277565b73ffffffffffffffffffffffffffffffffffffffff16146106ec576040517f08c379a00000000000000000000000000000000000000000000000000000000081526004016106e390610fac565b60405180910390fd5b6040518060800160405280600254815260200183815260200185858080601f016020809104026020016040519081016040528093929190818152602001838380828437600081840152601f19601f82011690508083019250505050505050815260200182815250600160008073ffffffffffffffffffffffffffffffffffffffff1673ffffffffffffffffffffffffffffffffffffffff16815260200190815260200160002060006002548152602001908152602001600020600082015181600001556020820151816001015560408201518160020190805190602001906107d5929190610ae4565b50606082015181600301559050503373ffffffffffffffffffffffffffffffffffffffff167f30ba0973c8764fa291413faa63c69743d37b52211aeceb5d5d6aeb1ad61bc2386002548360405161082d9291906111ec565b60405180910390a26002600081548092919061084890611244565b919050555050505050565b61085b61094b565b73ffffffffffffffffffffffffffffffffffffffff16610879610277565b73ffffffffffffffffffffffffffffffffffffffff16146108cf576040517f08c379a00000000000000000000000000000000000000000000000000000000081526004016108c690610fac565b60405180910390fd5b600073ffffffffffffffffffffffffffffffffffffffff168173ffffffffffffffffffffffffffffffffffffffff16141561093f576040517f08c379a0000000000000000000000000000000000000000000000000000000008152600401610936906112ff565b60405180910390fd5b61094881610953565b50565b600033905090565b60008060009054906101000a900473ffffffffffffffffffffffffffffffffffffffff169050816000806101000a81548173ffffffffffffffffffffffffffffffffffffffff021916908373ffffffffffffffffffffffffffffffffffffffff1602179055508173ffffffffffffffffffffffffffffffffffffffff168173ffffffffffffffffffffffffffffffffffffffff167f8be0079c531659141344cd1fd0a4f28419497f9722a3daafe3b4186f6b6457e060405160405180910390a35050565b828054610a2390610f2e565b90600052602060002090601f016020900481019282610a455760008555610a93565b82601f10610a565780548555610a93565b82800160010185558215610a9357600052602060002091601f016020900482015b82811115610a92578254825591600101919060010190610a77565b5b509050610aa09190610b6a565b5090565b508054610ab090610f2e565b6000825580601f10610ac25750610ae1565b601f016020900490600052602060002090810190610ae09190610b6a565b5b50565b828054610af090610f2e565b90600052602060002090601f016020900481019282610b125760008555610b59565b82601f10610b2b57805160ff1916838001178555610b59565b82800160010185558215610b59579182015b82811115610b58578251825591602001919060010190610b3d565b5b509050610b669190610b6a565b5090565b5b80821115610b83576000816000905550600101610b6b565b5090565b600080fd5b600080fd5b600073ffffffffffffffffffffffffffffffffffffffff82169050919050565b6000610bbc82610b91565b9050919050565b610bcc81610bb1565b8114610bd757600080fd5b50565b600081359050610be981610bc3565b92915050565b6000819050919050565b610c0281610bef565b8114610c0d57600080fd5b50565b600081359050610c1f81610bf9565b92915050565b60008060408385031215610c3c57610c3b610b87565b5b6000610c4a85828601610bda565b9250506020610c5b85828601610c10565b9150509250929050565b610c6e81610bef565b82525050565b600081519050919050565b600082825260208201905092915050565b60005b83811015610cae578082015181840152602081019050610c93565b83811115610cbd576000848401525b50505050565b6000601f19601f8301169050919050565b6000610cdf82610c74565b610ce98185610c7f565b9350610cf9818560208601610c90565b610d0281610cc3565b840191505092915050565b6000608082019050610d226000830187610c65565b610d2f6020830186610c65565b8181036040830152610d418185610cd4565b9050610d506060830184610c65565b95945050505050565b610d6281610bb1565b82525050565b6000602082019050610d7d6000830184610d59565b92915050565b60008060408385031215610d9a57610d99610b87565b5b6000610da885828601610c10565b9250506020610db985828601610c10565b9150509250929050565b60008115159050919050565b610dd881610dc3565b82525050565b6000602082019050610df36000830184610dcf565b92915050565b600080fd5b600080fd5b600080fd5b60008083601f840112610e1e57610e1d610df9565b5b8235905067ffffffffffffffff811115610e3b57610e3a610dfe565b5b602083019150836001820283011115610e5757610e56610e03565b5b9250929050565b60008060008060608587031215610e7857610e77610b87565b5b600085013567ffffffffffffffff811115610e9657610e95610b8c565b5b610ea287828801610e08565b94509450506020610eb587828801610c10565b9250506040610ec687828801610c10565b91505092959194509250565b600060208284031215610ee857610ee7610b87565b5b6000610ef684828501610bda565b91505092915050565b7f4e487b7100000000000000000000000000000000000000000000000000000000600052602260045260246000fd5b60006002820490506001821680610f4657607f821691505b60208210811415610f5a57610f59610eff565b5b50919050565b7f4f776e61626c653a2063616c6c6572206973206e6f7420746865206f776e6572600082015250565b6000610f96602083610c7f565b9150610fa182610f60565b602082019050919050565b60006020820190508181036000830152610fc581610f89565b9050919050565b7f5468652073656c6563746564206974656d206973206e6f7420617661696c616260008201527f6c652e0000000000000000000000000000000000000000000000000000000000602082015250565b6000611028602383610c7f565b915061103382610fcc565b604082019050919050565b600060208201905081810360008301526110578161101b565b9050919050565b7f5468652073656e7420616d6f756e742068617320746f20626520657175616c2060008201527f746f20746865206974656d2076616c7565000000000000000000000000000000602082015250565b60006110ba603183610c7f565b91506110c58261105e565b604082019050919050565b600060208201905081810360008301526110e9816110ad565b9050919050565b60006060820190506111056000830186610d59565b6111126020830185610d59565b61111f6040830184610c65565b949350505050565b61113081610dc3565b811461113b57600080fd5b50565b60008151905061114d81611127565b92915050565b60006020828403121561116957611168610b87565b5b60006111778482850161113e565b91505092915050565b7f546865205061796d656e74206661696c65640000000000000000000000000000600082015250565b60006111b6601283610c7f565b91506111c182611180565b602082019050919050565b600060208201905081810360008301526111e5816111a9565b9050919050565b60006040820190506112016000830185610c65565b61120e6020830184610c65565b9392505050565b7f4e487b7100000000000000000000000000000000000000000000000000000000600052601160045260246000fd5b600061124f82610bef565b91507fffffffffffffffffffffffffffffffffffffffffffffffffffffffffffffffff82141561128257611281611215565b5b600182019050919050565b7f4f776e61626c653a206e6577206f776e657220697320746865207a65726f206160008201527f6464726573730000000000000000000000000000000000000000000000000000602082015250565b60006112e9602683610c7f565b91506112f48261128d565b604082019050919050565b60006020820190508181036000830152611318816112dc565b905091905056fea2646970667358221220e0d611f3e5d82b2bdb5537eb1460418b390c36f7ff9ffb1b8f4844ca59e6efb864736f6c634300080b0033",
  "immutableReferences": {},
  "source": "// SPDX-License-Identifier: MIT\npragma solidity ^0.8.3;\n\nimport \"./Interfaces/IShop.sol\";\nimport \"./PoToken.sol\";\nimport \"@openzeppelin/contracts/access/Ownable.sol\";\n/**\n * @dev Interface representing a virtual Shop.\n */\ncontract Shop is IShop, Ownable {\n\n   \n    // Structure of an item. This should be changed lately with a ERC721 or similar NFT.\n    struct Item {\n        uint256 id;\n        uint256 weight;\n        string name;\n        uint256 value;\n    }\n\n    // Owned items by owner.\n    // Items on address(0) can be bought by customers.\n    mapping(address => mapping(uint256 => Item)) public ownedItems;\n\n    // @devs Total number of items;\n    uint256 private _itemsCount;\n\n    address private _poTokenContractAddress;\n\n    PoToken private poToken;\n\n\n    constructor (address poTokenContract) {\n        _itemsCount = 1;\n\n        _poTokenContractAddress = poTokenContract;\n\n        poToken = PoToken(_poTokenContractAddress);\n    }\n\n     function buyItem(uint256 itemId, uint256 amountPaid) external override returns (bool) {\n\n        // check that the item is available (on address(0))\n        require(ownedItems[address(0)][itemId].id == itemId, \"The selected item is not available.\");\n\n        // Check if the amountPaid is enough to buy the item.\n        require(amountPaid == ownedItems[address(0)][itemId].value,\"The sent amount has to be equal to the item value\");\n\n        // Substract sent value from user PO total\n        // FIXME FIX DELEGATECALL ALWAYS RETURN FALSE\n        //(bool transferSucceded, )  = _poTokenContractAddress.delegatecall(abi.encodeWithSignature(\"transfer(address recipient, uint256 amount)\", owner(),amountPaid));\n        // Ask for approval\n        (bool transferSucceded)  = poToken.transferFrom(msg.sender, address(this),amountPaid);\n\n        require(transferSucceded == true, \"The Payment failed\");\n        // Buy the item, updating the mapping\n        ownedItems[msg.sender][itemId] = ownedItems[address(0)][itemId];\n\n        // delete the item held by the shop.\n        delete(ownedItems[address(0)][itemId]);\n\n        // Emit Event and return\n        emit itemBoughtEvent(msg.sender, itemId, amountPaid);\n\n        // video polizei https://twitter.com/LFConaction/status/1476160967071477763\n        return true;\n     }\n\n    function addItem(string calldata name, uint256 weight, uint256 itemValue) external override onlyOwner {\n        \n        // check if the item already exist. DONT IMPLEMENT, expensive, maybe different with NFTs.\n        \n        // Add The item\n        // FIXME I think that the name is not being set because the parameter is calldata and the struct is other thing\n        ownedItems[address(0)][_itemsCount] = Item(_itemsCount,weight, name,itemValue);\n  \n        // emit event\n        emit itemAddedEvent(msg.sender, _itemsCount, itemValue);\n\n        _itemsCount++;\n    }\n\n}",
  "sourcePath": "/home/damoklesh/workspace/solidity/skylar_treasury/contracts/Shop.sol",
  "compiler": {
    "name": "solc",
    "version": "0.8.11+commit.d7f03943.Emscripten.clang"
  },
  "schemaVersion": "3.4.3",
  "updatedAt": "2022-01-14T23:26:27.418Z",
  "devdoc": {
    "details": "Interface representing a virtual Shop.",
    "kind": "dev",
    "methods": {
      "addItem(string,uint256,uint256)": {
        "details": "Adds and item to the shop catalog.",
        "params": {
          "itemValue": "The value of the item in P.O."
        }
      },
      "buyItem(uint256,uint256)": {
        "details": "Explain to a developer any extra details",
        "params": {
          "amountPaid": "The amount paid for the item in P.O."
        },
        "returns": {
          "_0": "True if the buy was successful, false otherwise."
        }
      },
      "owner()": {
        "details": "Returns the address of the current owner."
      },
      "renounceOwnership()": {
        "details": "Leaves the contract without owner. It will not be possible to call `onlyOwner` functions anymore. Can only be called by the current owner. NOTE: Renouncing ownership will leave the contract without an owner, thereby removing any functionality that is only available to the owner."
      },
      "transferOwnership(address)": {
        "details": "Transfers ownership of the contract to a new account (`newOwner`). Can only be called by the current owner."
      }
    },
    "version": 1
  },
  "userdoc": {
    "kind": "user",
    "methods": {
      "buyItem(uint256,uint256)": {
        "notice": "Buy the given item designed by the id parameter."
      }
    },
    "version": 1
  }
}